:0200000048298D
:10000800FF00030E8301B7000A08B8008A017008D0
:10001800A0000408A1008C1E2A281A08B30033087F
:10002800353A031D1A28B601A2142A283608233E99
:10003800840033088000B60A80300A3AF000803025
:100048003606700203182928B6012A282008F0006D
:100058002108840038088A00370E8300FF0E7F0EBF
:0200680009008D
:0C006A0000000000000000000000080082
:10007600243083120313FC00B530FD00FD0B41282C
:0A008600FC0B4128000000000800F8
:0E009000533083120313FD00FD0B4C280800B3
:10009E0083120313BE1B55288611562886153E1B48
:1000AE005A2806115B280615BE1A5F28861060288E
:1000BE0086143E1A6428061065280614221869282C
:1000CE0086166A288612061635200612BE19712863
:1000DE008611722886153E19762806117728061580
:1000EE00BE187B2886107C2886143E1880280610A1
:1000FE00812806142218852886168628861206164A
:10010E0035200612221C8D283B208E284820080000
:10011E008312031322103D08BE004F202214080044
:0E012E008312031335088A003408820008008B
:10013C0097208A110A128000840AB40A0319B50A9E
:08014C00F003031D9E280800CA
:10015400BC28803083120313B900CF28C030B90003
:10016400CF289430B900CF28D430B900CF288030BC
:10017400B900CF28831203133908013A0319AB28B5
:100184003908023A0319B0283908033A0319B32885
:100194003908043A0319B628B9283A03F000390893
:1001A400F0077008B9007008BE004F202210BC018F
:1001B4003C083B07840000080319E8283C083B0777
:1001C40084000008BD008F20BC0ADA28221408002D
:1001D400831603139816903083129800831687179A
:1001E400071383128C1EF9281A08F000F32808005C
:1001F4008316031306128612061086100611861142
:1002040083120612861286110611861006103B20F0
:100214003B203B20861406140616352006123B208C
:100224000616352006123B200616352006123B2002
:1002340006100616352006123B2006163520061237
:10024400861086150616352006123B2086110614E4
:1002540006163520061206100616352006123B2017
:1002640006163520061206140616352006123B2003
:100274000610061635200612861506158614061471
:0C0284000616352006123B20221408004C
:100290008316031788018901831287138813831635
:1002A0000313860183128601FA200130BE004F201D
:1002B0000C30BE004F20A210B6018B170B1783160F
:1002C0008C16813099001815EA200330FB008A3023
:1002D000FC005530FD00FD0B6B29FC0B6B29FB0B63
:1002E0006B2900000000A21C80290130BE004F20B5
:1002F0000130B9000130BA002330BB00AA20A2109F
:100300000330FB008A30FC005530FD00FD0B8629D0
:10031000FC0B8629FB0B86290000000073298F291E
:04400E00F22C00068A
:00000001FF
