:10000000BAEF0EF0FFFFFFFF00C01EF001C01DF0B1
:1000100002C01CF003C01BF004C01AF005C019F0A8
:1000200008C018F009C017F00AC016F00BC015F090
:10003000E1CF27F0E2CF28F0E9CF25F0EACF26F094
:10004000F3CF23F0F4CF24F0F5CF22F0F8CF1FF058
:10005000F7CF20F0F6CF21F004EC0CF022C0F5FF32
:100060001FC0F8FF20C0F7FF21C0F6FF23C0F3FF39
:1000700024C0F4FF1EC000F01DC001F01CC002F03F
:100080001BC003F01AC004F019C005F018C008F036
:1000900017C009F016C00AF015C00BF025C0E9FF23
:1000A00026C0EAFF27C0E1FF28C0E2FF11000B6A6B
:1000B0000A6A096A00500402F4CF09F0F3CF08F08D
:1000C00001500502F4CF0BF0F3CF0AF00050050207
:1000D000F3500926F4500A22E86A0B220150040268
:1000E000F3500926F4500A22E86A0B2208C000F0F7
:1000F00009C001F00AC002F00BC003F012001E0E8E
:10010000716E100E00019D6F040E9E6F9DC0E1FF89
:100110009EC0E2FFE69E9DC0E1FF9EC0E2FFE69C1E
:10012000040E9D25E16E000E9E21E26EE68C180EF7
:10013000A16F040EA26FA1C0E1FFA2C0E2FFE69E84
:10014000A1C0E1FFA2C0E2FFE69C040EA125E16E82
:10015000000EA221E26EE68C020E9D25E16E000EDD
:100160009E21E26E54C0E6FF55C0E6FF010E9D25BC
:10017000E16E000E9E21E26E400EE66E9DC0E9FF2C
:100180009EC0EAFFEECF00F09DC0E1FF9EC0E2FFFF
:10019000400E0014E66E9DC0E9FF9EC0EAFFEECF60
:1001A00000F09DC0E1FF9EC0E2FF880E0010E66EE9
:1001B0009DC056F09EC057F0040E9D19006E00C001
:1001C0009DF01200000E0001A85D02E1080EA75D7F
:1001D00010E2A7C003F0A8C004F05E50000A03E1DB
:1001E000010E5E6E05D05E50010A02E1020E5E6EE7
:1001F00004D0080E036E000E046E9FC0E1FFA0C085
:10020000E2FFE6929FC0E1FFA0C0E2FFE6909FC040
:10021000E9FFA0C0EAFFEECF00F09FC0E1FFA0C061
:10022000E2FF04500010E66E010E9F25E16E000E05
:10023000A021E26E03C0E6FF0350A75D006E0450EC
:10024000A859016E00C0A7F001C0A8F0280E596E91
:10025000040E5A6EA6B12FD0035004102BE0A3C099
:10026000F6FFA4C0F7FFA5C0F8FF0900F5CF00F026
:1002700059C0E1FF5AC0E2FF00C0E6FF594A5A2ABE
:10028000010EA325006E000EA421016E000EA52113
:10029000026E00C0A3F001C0A4F002C0A5F0010EE0
:1002A000035C006E000E0458016E00C003F001C034
:1002B00004F0D2D724D00350041021E0A3C0E9FFFA
:1002C000A4C0EAFF59C0E1FF5AC0E2FFEECFE6FF4B
:1002D000594A5A2A010EA325006E000EA421016E70
:1002E00000C0A3F001C0A4F0010E035C006E000E7C
:1002F0000458016E00C003F001C004F0DCD7120006
:1003000004012251010A13E120C401F01F0E01165D
:100310000150000A0CE10001A68F04012151030ADB
:1003200004E1010E0001776F02D00001776B040138
:100330002251000AD8A48DD020C401F01F0E01164E
:100340000150020AD8A485D024C401F00F0E011672
:100350000150000AD8B47DD00001A68F040124BF4B
:1003600016D024C403F00F0E031603C000F0000ED5
:10037000016E0036009001369B0E0024E96E000EDF
:100380000120EA6EEECF04F0EECF05F015D024C4C4
:1003900003F00F0E031603C000F0000E016E0036CE
:1003A000009001369F0E0024E96E000E0120EA6ED7
:1003B000EECF04F0EECF05F02151030A07E104C0AF
:1003C000E1FF05C0E2FF840EE66E43D024C400F0D6
:1003D0000F0E0016700E026E0F0E036E00500226F6
:1003E000D8B0032A02C0E9FF03C0EAFFFE0EEE14F4
:1003F000006EEECF01F0FF0E011602C0E1FF03C058
:10040000E2FF00C0E6FF01C0E6FF24AF11D004C048
:10041000E1FF05C0E2FFE66A040E0418006E00C0AA
:1004200004F004C0E1FF05C0E2FF400EE66E11D00B
:1004300004C0E1FF05C0E2FF880EE66E040E04185A
:10044000006E00C004F004C0E1FF05C0E2FFC80E6A
:10045000E66E120004012051800AD8A478D0C00EA4
:100460000001A66F69D00001E70E006E1E0E016E3E
:10047000000E026E00C0A3F001C0A4F002C0A5F0FF
:10048000120EA76F000EA86F62D00001030E006E5F
:10049000000E016E22C404F0000E056E08DEB90ED7
:1004A0000024E96E000E0120EA6EEECFA3F0EECF3D
:1004B000A4F0EECFA5F0020EA325F66E000EA42147
:1004C000F76E000EA521F86E0900F5CF00F00900C7
:1004D000F5CF01F000C0A7F001C0A8F038D00401AA
:1004E00022510001C85D23E3030E006E000E016E71
:1004F00022C404F0000E056EDADDBC0E0024E96EA5
:10050000000E0120EA6EEECFA3F0EECFA4F0EECF06
:10051000A5F0A3C0F6FFA4C0F7FFA5C0F8FF09002F
:10052000F5CF00F000C0A7F0000EA86F01D0A66BB9
:100530000ED00001A66B0BD004012351010A93E0F9
:100540002351020AA2E02351030AC9E0F2D71200A4
:100550000001A68F716A7F6B22C4C7F0C751000AE1
:1005600003E1100EC66F03D0200EC66FC8DD120067
:1005700020C401F01F0E01160150010A01E094D0C1
:1005800004012451000A01E08FD02151060A42E102
:1005900037D00001C751010A17E1760E006E1E0E1A
:1005A000016E000E026E120E0026000E01220222C3
:1005B00000C0A3F001C0A4F002C0A5F0090EA76F0F
:1005C000000EA86FC00EA66F25D00001C751010A0A
:1005D00012E1C60E006E1E0E016E000E026E00C00D
:1005E000A3F001C0A4F002C0A5F0210EA76F000E79
:1005F000A86FC00EA66F0ED00001800EA66F0AD0A5
:1006000004012351210AC5E02351220ADEE02351CF
:10061000230AF2E020C401F0600E0116050E006E00
:10062000005004E00132019EFF0FFBD70150010A88
:1006300001E03AD026D038D037D0510E0001A36F58
:10064000000EA46F010EA76F000EA86FC10EA66F5B
:100650002BD00001800EA66F23C451F025D00001DD
:10066000500EA36F000EA46F010EA76F000EA86FAF
:10067000810EA66F19D00001800EA66F22C450F023
:1006800013D004012151010AD6E02151090AD4E016
:100690002151020AD2E021510A0ADBE02151030A6A
:1006A000DEE021510B0AE7E012000401286B296B00
:1006B0004AD00001A68F0401288100017751010A68
:1006C00002E10401288354D00001A68F51D000011B
:1006D000A68F040124BF16D024C403F00F0E031606
:1006E00003C000F0000E016E0036009001369B0E34
:1006F0000024E96E000E0120EA6EEECF04F0EECF8A
:1007000005F015D024C403F00F0E031603C000F04B
:10071000000E016E0036009001369F0E0024E96E37
:10072000000E0120EA6EEECF04F0EECF05F004C01B
:10073000E9FF05C0EAFFEECF01F001A403D00401F8
:10074000010E286F15D020C401F01F0E01160150B4
:10075000000AAFE020C401F01F0E01160150010A8B
:10076000B3E020C401F01F0E01160150020AAFE0F1
:100770000001A6AF07D0280EA36F040EA46FA681B8
:10078000020EA76F1200760E0001B96F1E0EBA6F2F
:10079000000EBB6F280EBC6F1F0EBD6F000EBE6F2C
:1007A0000A0EBF6F1F0EC06F000EC16F1A0EC26F10
:1007B0001F0EC36F000EC46F120020C401F0600E44
:1007C0000116050E006E005004E00132019EFF0F7D
:1007D000FBD70150000A01E05ED03AD00001A68F9D
:1007E000080EC66F58D036DE56D0B2DE54D00001A7
:1007F000C70EA36F000EA46FA681010EA76FA68F70
:100800004AD053DF48D07CDD46D07F0E006E000E0C
:10081000016E040124510026D8B0012A00C0A3F0C3
:1008200001C0A4F00001A681010EA76FA68F33D0EE
:100830000001A68F7F0EE16E000EE26E04012451CE
:10084000E126D8B0E22A22C4E6FF25D024D023D066
:1008500004012151050AC2E02151060AC4E02151D8
:10086000090AC3E02151080AC2E02151000AC9E087
:100870002151010AC8E02151030AC5E021510A0AA9
:10088000C4E021510B0AD4E02151070ADFE02151D5
:100890000C0ADDE0DCD7120000017C5301E068DEC9
:1008A00012005F6A9FC0E1FFA0C0E2FFE66A040E8B
:1008B00000019F19E16EA0C0E2FF000EE21AE66A95
:1008C00094AF01D0949F1200160E6F6E9F0E6B6E48
:1008D0003B0E696E12006D980001A6BF49D094AF1F
:1008E00028D0020E5F6E010E9F25E16E000EA02142
:1008F000E26EE66A9FC0E1FFA0C0E2FFC80EE66EAE
:10090000010E5C24E16E000E5D20E26E080EE66EC4
:10091000020E5C24E16E000E5D20E26E280EE66E93
:10092000040EE66E5CC0E1FF5DC0E2FFC80EE66E3D
:100930001ED0010E5C24E16E000E5D20E26E080EFA
:10094000E66E020E5C24E16E000E5D20E26E200E6B
:10095000E66E040EE66E5CC0E1FF5DC0E2FF8C0E49
:10096000E66E9FC0E1FFA0C0E2FF840EE66E82D07B
:1009700094BF80D0040120AF55D00001A8510401DC
:10098000275D04E10001A7510401265D04E226C4AD
:10099000A7F027C4A8F016DC010E5F6E010E5C24E0
:1009A000E16E000E5D20E26E080EE66E020E5C2423
:1009B000E16E000E5D20E26E200EE66E040EE66E25
:1009C0005CC0E1FF5DC0E2FF800EE66E5B6A010E77
:1009D0005224E16E000E5320E26E080EE66E020E07
:1009E0005224E16E000E5320E26E200EE66E040EDD
:1009F000E66E52C0E1FF53C0E2FF840EE66E010EC8
:100A00005B6E020E9F25E16E000EA021E26E280EA5
:100A1000E66E040EE66E9FC0E1FFA0C0E2FFC80EC6
:100A2000E66E28D00001020E5F6E010E9F25E16E7A
:100A3000000EA021E26EE66A9FC0E1FFA0C0E2FFC7
:100A4000C80EE66E010E5C24E16E000E5D20E26EC3
:100A5000080EE66E020E5C24E16E000E5D20E26E72
:100A6000280EE66E040EE66E5CC0E1FF5DC0E2FF9C
:100A7000C80EE66E1200010E5224E96E000E5320DD
:100A8000EA6EEECF00F000C002F0000E0001965DAD
:100A900002E10250955D03E295C002F00AD00250D7
:100AA000955D006E000E9659016E00C095F001C074
:100AB00096F0036A0250035C1CE2280EE96E040EF5
:100AC000EA6E0350E926D8B0EA2AEECF00F092C0D1
:100AD000E1FF93C0E2FF00C0E6FF010E9225006E29
:100AE000000E9321016E00C092F001C093F0032A22
:100AF000E1D7000E006E9651005C02E195510008AE
:100B000028E2010E5C24E16E000E5D20E26E080E0C
:100B1000E66E020E5C24E16E000E5D20E26E280E91
:100B2000E66E040EE66E52C0E9FF53C0EAFFEECF58
:100B300000F000BC07D05CC0E1FF5DC0E2FFC80E62
:100B4000E66E06D05CC0E1FF5DC0E2FF880EE66E97
:100B500019D0010E5C24E16E000E5D20E26E080EDD
:100B6000E66E020E5C24E16E000E5D20E26E200E49
:100B7000E66E040EE66E5CC0E1FF5DC0E2FF840E2F
:100B8000E66E949F1200040E00019F19006E00C0D3
:100B90009FF0C651080A0AE122C46EFF6E50000899
:100BA00003E2100EC66F02D0040EC66F5F50010A3A
:100BB0003BE1020E9F25E16E000EA021E26E280EA1
:100BC000E66E040EE66EE2EC00F05E50020A07E10B
:100BD0009FC0E1FFA0C0E2FF840EE66E24D0040EA9
:100BE0009F19006E00C09FF09FC0E9FFA0C0EAFF00
:100BF000EECF00F000BC0CD0040E9F19006E00C0B8
:100C00009FF09FC0E1FFA0C0E2FFC80EE66E0BD0D0
:100C1000040E9F19006E00C09FF09FC0E1FFA0C0AE
:100C2000E2FF880EE66E01D03CDE12005F50020A41
:100C300002E121DF1ED035DE5B50000A19E1010E12
:100C40005C24E16E000E5D20E26E080EE66E020E80
:100C50005C24E16E000E5D20E26E200EE66E040E56
:100C6000E66E5CC0E1FF5DC0E2FF8C0EE66E01D077
:100C70005B6A120088DD566A576ACD6BCE6B6A6A72
:100C8000686A22DE6D8C6E6A716A6D9CD06BD16B66
:100C9000000ED15D02E1080ED05D17E2D0C000F079
:100CA000D1C001F0003600900136003600900136C8
:100CB000000E0024E16E040E0120E26EE66AE66A90
:100CC000E66AE66AD04BD12BE3D7160E706E68A6A3
:100CD00003D0F70E6816FBD7A66B946B956B966BDB
:100CE0006D98080E9F6F040EA06FC76BC66B120045
:100CF0006984EF0E68166D8212006D92699468A483
:100D000003D0FB0E6816FBD71200A19A120070A048
:100D100019D052C0E9FF53C0EAFFEECF01F00150F5
:100D2000800A0FE19FC0E9FFA0C0EAFFEECF01F00B
:100D30000150840A06E152C0E1FF53C0E2FF8C0E6D
:100D4000E66E7090DF0E681612009FC0E9FFA0C02B
:100D5000EAFFEECF00F000AE05D09FC0E1FFA0C0DB
:100D6000E2FFE66A5E6A5F6A0001A76BA86BA66B8A
:100D700024DD92DDB0DD1200000E0001F51902E164
:100D8000000EF41902E1016A0AD0F4C0E9FFF5C0CF
:100D9000EAFFEECF00F0000E00BE010E016E01C0B2
:100DA00000F012000001F551000A12E0F4C000F05A
:100DB000000E016E0036009001369F0E0024E96E91
:100DC000000E0120EA6EEECF04F0EECF05F011D058
:100DD000F4C000F0000E016E0036009001369B0E4C
:100DE0000024E96E000E0120EA6EEECF04F0EECF93
:100DF00005F0020E0424E16E000E0520E26EF6C03E
:100E0000E6FFF7C0E6FF010E0424E16E000E0520A8
:100E1000E26EF8C0E6FF04C0E9FF05C0EAFFEECFCE
:100E200000F004C0E1FF05C0E2FF400E0014E66ED2
:100E300004C0E9FF05C0EAFFEECF00F004C0E1FF07
:100E400005C0E2FF880E0010E66EF551000A1BE0B7
:100E5000F4C000F0000E016E0036009001369F0EC7
:100E60000024026E000E0120036E02C0E9FF03C0E1
:100E7000EAFF040EEE18006E02C0E1FF03C0E2FFBD
:100E800000C0E6FF1AD0F4C000F0000E016E00367C
:100E9000009001369B0E0024026E000E0120036EAE
:100EA00002C0E9FF03C0EAFF040EEE18006E02C0A4
:100EB000E1FF03C0E2FF00C0E6FF04C000F005C090
:100EC00001F012000001C651000A0AE16D6A696A68
:100ED000FBDC6DB602D06D86FCD70001010EC66F3B
:100EE000C651010A08E16DBA06D0686A696A69806C
:100EF0006988020EC66F68A405D069A403D0FB0EF2
:100F00006816FBDE6DA202D000DFD4D068A018D036
:100F100069A016D0AFDE040EC66F200E0401026F6A
:100F2000040E036F080E016F000E0015006E00C066
:100F300000F48C0E0011006E00C000F4FE0E681666
:100F400068A805D069A803D0D3DEEF0E681668AC98
:100F500004D069AC02D0BF0E681668AA03D069AA93
:100F600001D0D5DE68A202D069B26A6A040E00011F
:100F7000C65D02E2CADE9ED069A69BD0F56B040E68
:100F8000F55DD8B096D068A691D06CCFCFF0F70EB3
:100F90006816780ECF15016E0150000AD8A485D0CE
:100FA000FD0ECF15016E026AFF0E0216000E02182A
:100FB00002E1000E01186BE17E0ECF15016E01C03B
:100FC00003F00332039E03C000F0000E016E0036F2
:100FD00000900136003600900136000E0024026EAB
:100FE000040E0120036E02C052F003C053F002C091
:100FF0005CF003C05DF0040E5C18006E00C05CF095
:1010000002C0E9FF03C0EAFFEECF00F000C001F02C
:101010003C0E01160132019E0132019E01500D0A63
:1010200034E1020E5224E96E000E5320EA6EEECF38
:1010300001F0EECF02F00250040A02E1280E01187E
:1010400022E1020E5224E16E000E5320E26E200EC9
:10105000E66E040EE66EF46B080EF45D14E2200EEC
:10106000E16E040EE26EF451E126D8B0E22A280EB9
:10107000E96E040EEA6EF451E926D8B0EA2AEECF02
:10108000E6FFF42BE9D761DE01D0D0DD0DD0FD0EF7
:10109000CF15016E026AFF0E0216000E021802E161
:1010A000040E011801E16FDD00D001D002D0F52B54
:1010B00066D72BDE12000F0E0C6E470E0D6E0D2E36
:1010C000FED70C2EFCD7000000001200210E0D6E82
:1010D0000D2EFED71200000000001200200E0001AD
:1010E000C65D03E36DB201D002D0006A4ED0CDC020
:1010F000F4F0CEC0F5F040DE005246E1F1C0F4F06D
:10110000010EF56FEEC0F6F0EFC0F7F0F0C0F8F0AA
:1011100049DE00C0CDF001C0CEF0C96BCA6BCB6B0D
:10112000CC6BCDC0F4F0CEC0F5F026DE005217E057
:10113000200EC65D03E36DB201D002D0006A25D057
:10114000010E016E0150000A01E1BCDE0001C9512F
:10115000CA11CB11CC1102E0006A17D0E2D7CDC082
:10116000F2F0CEC0F3F0000ECE1902E1000ECD1960
:1011700009E0010EF225E96E000EF321EA6EEECFD2
:1011800000F003D0006A01D0006A1200E7C0EEF060
:10119000E8C0EFF0E9C0F0F0010E0001F16F9EDF52
:1011A00012000001ED6B200EC65D03E36DB201D0AD
:1011B00002D0006A2DD056C0F4F057C0F5F0DCDD47
:1011C000005225E156C0EBF057C0ECF0000E571866
:1011D00002E1000E56180AE0010EEB25E96E000E42
:1011E000EC21EA6EEECF00F000C0EDF0EAC0F4F0C2
:1011F000F56BE7C0F6F0E8C0F7F0E9C0F8F0D2DD33
:1012000000C056F001C057F0EDC000F001D0006AF8
:1012100012000001E7BF02D0819601D08186E7BDB0
:1012200002D0819401D08184E7BB02D0819201D0A9
:101230008182E7B902D0819001D08180C5B102D00E
:10124000818A01D0819A818846DF8198E7B702D0F0
:10125000819601D08186E7B502D0819401D0818446
:10126000E7B302D0819201D08182E7B102D08190B0
:1012700001D08180C5B102D0818A01D0819A818854
:101280002ADF8198C5A102D016DF01D01FDF12002E
:10129000D08EA28AA08AF28E120054C0E7F055C008
:1012A000E8F0400E0001E96F010EEA6F7ADF1200EC
:1012B0000001E46BE56BE66B020EE125F66E000EB5
:1012C000E221F76E000EE321F86E0900F5CF05F07C
:1012D000030EE125F66E000EE221F76E000EE3210B
:1012E000F86E0900F5CF00F000C003F0000E046EA8
:1012F00003C001F0006A05500024066E000E0120B4
:10130000076EE1C008F0E2C009F0E3C00AF0010E88
:101310000824F66E000E0920F76E000E0A20F86E03
:101320000900F5CF01F00150020A1BE1060E082466
:10133000F66E000E0920F76E000E0A20F86E090006
:10134000F5CF01F00150E45D0CE2060E0824F66EC4
:10135000000E0920F76E000E0A20F86E0900F5CF86
:10136000E4F0010E0824F66E000E0920F76E000E60
:101370000A20F86E0900F5CF01F00150040A1BE1C4
:10138000080E0824F66E000E0920F76E000E0A20E3
:10139000F86E0900F5CF01F00150E45D0CE2080E93
:1013A0000824F66E000E0920F76E000E0A20F86E73
:1013B0000900F5CFE4F008C0F6FF09C0F7FF0AC046
:1013C000F8FF0900F5CF00F00050E525016E000E92
:1013D000E621026E01C0E5F002C0E6F00750025CB3
:1013E00002E10650015C01E30FD008C0F6FF09C01E
:1013F000F7FF0AC0F8FF0900F5CF00F000500826FB
:10140000000E09220A2283D7E4C000F01200000176
:10141000C591E1C0E7F0FDDEC5811200E70E006E68
:101420001E0E016E000E026E0E0E0024F66E000EF1
:101430000120F76E000E0220F86E0900F5CF03F0D0
:1014400003C004F00F0E0024F66E000E0120F76EAC
:10145000000E0220F86E0900F5CF01F00150035C88
:1014600012E2E70E006E1E0E016E000E026E0F0EEF
:101470000024F66E000E0120F76E000E0220F86EBA
:101480000900F5CF04F0E70E006E1E0E016E000E8F
:10149000026E100E0024F66E000E0120F76E000E94
:1014A0000220F86E0900F5CF01F00150045C12E251
:1014B000E70E006E1E0E016E000E026E100E00246E
:1014C000F66E000E0120F76E000E0220F86E090085
:1014D000F5CF04F004C000F01200100E0501406FBB
:1014E000D4C041F578C042F57AC043F579C044F5DF
:1014F000050E00017D6F800E7D19006E800E400A82
:10150000005C0DE2400EE16E050EE26E7D51E126BB
:10151000000E7DBFFF0EE222E66A7D2BECD7400E67
:10152000E76F050EE86F400EE96F30DE120052D013
:1015300075C0E9FF00017D6B800E7DBF7F0E006EE0
:10154000800E005C02E174517D5D11E2EFCF80F00E
:10155000400EE16E050EE26E7D51E126000E7DBF6C
:10156000FF0EE22280C0E6FFE92A7D2BE5D7400E80
:10157000E76F050EE86F400EE96F08DED46B31D0DF
:1015800075C0E9FF7D6B800E7DBF7F0E006E800E03
:10159000005C02E174517D5D16E2060E7D25006E51
:1015A000000E7DBFFF0E016E000E0122000E002412
:1015B000E96E050E0120EA6EEECF80F080C0EFFFED
:1015C000E92A7D2BE0D7060E786F794B7A2B85DFE1
:1015D000D46B07D00001D451040AAAE0D451030A05
:1015E000CFE012000001C651000A0BE16D6A696A82
:1015F00064EC04F04DDE6DB602D06D86FCD7010EB2
:10160000C66F12000BDF00C0D9F0760E0001E16F4B
:101610001E0EE26F000EE36F4BDE00C0DAF0D95110
:10162000005C03E2D9C000F002D0DAC000F0120082
:10163000000EACB2010E006E120044DC2EDE00C0C3
:1016400058F058521BE0D451000A18E1000E000A6D
:1016500003E1100E0501001901E010D0000E000A90
:1016600003E10501020E011901E008D002C5D4F022
:1016700003C576F004C575F005C574F01200F2CF0D
:1016800000F0F29ED9C0F6FFDAC0F7FFDBC0F8FF2A
:10169000A68EBF0EA616A684A688550EA76EAA0E05
:1016A000A76EA682A69400BE02D0F29E01D0F28E52
:1016B0001200F2CF02F0F29ED9C0F6FFDAC0F7FFB7
:1016C000DBC0F8FFDDC0E9FFDEC0EAFF0A00016A07
:1016D000200E015C07E2EECFF5FF00000F000000D6
:1016E000012AF6D7A68EBF0EA616A684550EA76EA3
:1016F000AA0EA76EA682A69402BE02D0F29E01D0C8
:10170000F28E120010D0800E0001D96F1AD0C00ED8
:10171000D96F17D0940ED96F14D0D40ED96F11D0C1
:10172000800ED96F0ED00001D951010AECE0D951D9
:10173000020AEDE0D951030AEDE0D951040AEDE0C7
:10174000EFD7DA05006ED951002600C0D9F000C0ED
:10175000E7F05FDDC591DD6BDD51DB25E96E000E45
:10176000DC21EA6EEE520BE0DD51DB25E96E000E66
:10177000DC21EA6EEECFE1F04ADEDD2BEDD7C5814C
:101780001200D9C0F6FFDAC0F7FFDBC0F8FF016A2C
:10179000026A0001E051025C02E1DF51015C0CE2EF
:1017A00009000150DD25E16E0250DE21E26EF5CF29
:1017B000E6FF014A022AEDD71200AECF01F0ABA23C
:1017C00002D0AB98AB8801C000F01200000E9EBAA8
:1017D000010E006E1200ACB202D00000FCD7D9C0DE
:1017E000ADFF12000900F5CFE6FF0006FBE10106A0
:1017F000F9E11200D5C0F6FFD6C0F7FFD7C0F8FF59
:101800000800F5CF00F012000001C651010A07E1FF
:101810006DBA05D0686A69806988020EC66F68A4CF
:1018200006D069A404D0FB0E68167DEC06F06DA20C
:1018300003D085EC06F0DCD068A019D069A017D0E1
:101840003AEC06F0040EC66F200E0401026F040E7F
:10185000036F080E016F000E0015006E00C000F44B
:101860008C0E0011006E00C000F4FE0E681668A811
:1018700006D069A804D078EC06F0EF0E681668ACC4
:1018800004D069AC02D0BF0E681668AA04D069AA59
:1018900002D087EC06F068A202D069B26A6A040E30
:1018A0000001C65D03E285EC06F0A2D069A69ED0D9
:1018B000FA6B040EFA5DD8B099D068A694D06CCFBC
:1018C000CFF0F70E6816780ECF15016E0150000AA2
:1018D000D8A488D0FD0ECF15016E026AFF0E021645
:1018E000000E021802E1000E01186DE17E0ECF1508
:1018F000016E01C003F00332039E03C000F0000E2E
:10190000016E003600900136003600900136000E60
:101910000024026E040E0120036E02C052F003C0C8
:1019200053F002C05CF003C05DF0040E5C18006E62
:1019300000C05CF002C0E9FF03C0EAFFEECF00F098
:1019400000C001F03C0E01160132019E0132019EE1
:1019500001500D0A35E1020E5224E96E000E5320AB
:10196000EA6EEECF01F0EECF02F00250040A02E17F
:10197000280E011822E1020E5224E16E000E5320BF
:10198000E26E200EE66E040EE66EF96B080EF95D4F
:1019900014E2200EE16E040EE26EF951E126D8B099
:1019A000E22A280EE96E040EEA6EF951E926D8B053
:1019B000EA2AEECFE6FFF92BE9D7A5EC06F002D034
:1019C00016EC06F00ED0FD0ECF15016E026AFF0E6A
:1019D0000216000E021802E1040E011802E1C3EC27
:1019E00005F000D001D002D0FA2B63D785EC06F0C9
:1019F0001200D60E0001AD6F170EAE6FD90EAF6F8D
:101A0000000EB06FBA0EA96F170EAA6F000EAB6F63
:101A1000000EAC6FCC0EB56F170EB66F000EB76F21
:101A2000000EB86F300EB16F160EB26F000EB36FAE
:101A3000000EB46FAC8A900EAB6E948E949C9EAAEE
:101A400003D0AECF00F0FBD7120000017B6B800EFD
:101A50007B19006E800E110A005C25E2040ED96F1E
:101A6000BADE0D0E0C6EFB0E0D6E0D2EFED70C2E7B
:101A7000FCD700000000AADE005212E0600E000158
:101A8000D56F000ED66F7B51D527000E7BBFFF0EA2
:101A9000D62393DED5C0E1FFD6C0E2FF00C0E6FF4B
:101AA00000017B2BD4D782A401D0AADA110E7B6F60
:101AB000800E7B19006E800E140A005C1DE2B8DDFA
:101AC00000520DE0600EE96E000EEA6E7B51E926D1
:101AD000000E7BBFFF0EEA22EECFD9F07CDE0D0EAA
:101AE0000C6EFB0E0D6E0D2EFED70C2EFCD70000DB
:101AF000000000017B2BDCD71C0EE76F09EC09F01E
:101B00009CDD585201E013DD020E0B6E040E0C6ECC
:101B1000BA0E0D6E0D2EFED70C2EFCD70B2EFAD75B
:101B2000000080A001D091D7120087DD5852D8B4B0
:101B300097D088D0060E0001786F7E6B800E7EBF36
:101B40007F0E006E800E005C02E174517E5D18E233
:101B5000200E765D02E1000E755D0EE375C0D9F0D2
:101B600076C0DAF0000EDB6FDC6F89DD400E00011D
:101B70007527000E762302D00F0E786F7E2BDED7EE
:101B8000794B7A2BAADCD46B6BD08280020ED96F92
:101B9000010EDA6F810EDB6F000EDC6FB3DD060E17
:101BA000786F796B7A6B99DCD46B5AD00F0E786FA3
:101BB000200E765D02E1000E755D19E375C0D9F067
:101BC00076C0DAF0000EDB6FDC6F060EDD6F050EFF
:101BD000DE6F6FDD020E0001D96F010EDA6F320E7B
:101BE000DB6F000EDC6F8EDD060E786F8284794B22
:101BF0007A2B73DCD46B34D0200E765D02E1000EBC
:101C0000755D19E375C0D9F076C0DAF0000EDB6FB0
:101C1000DC6F400EDD6F050EDE6F400EDF6F000ED5
:101C2000E06FAFDD400EE76F050EE86F400EE96F25
:101C3000C6EC08F005D00F0E786F794B7A2B4DDC8F
:101C4000D46B0ED00001D451050AD8B473D7D45147
:101C5000060A9BE0D451010AA9E0D451020ACCE063
:101C6000020E0B6E040E0C6EBA0E0D6E0D2EFED70C
:101C70000C2EFCD70B2EFAD7000080B001D055D720
:101C800012009398939A9390939293949396819839
:101C9000819A81968194819281905BEC08F05BEC53
:101CA00008F05BEC08F08182818081886BEC08F0A1
:101CB00081985BEC08F081886BEC08F081985BEC14
:101CC00008F081886BEC08F081985BEC08F081905B
:101CD00081886BEC08F081985BEC08F081886BECF4
:101CE00008F081988192818681886BEC08F0819858
:101CF0005BEC08F08196818081886BEC08F081981C
:101D0000819081886BEC08F081985BEC08F0818809
:101D10006BEC08F08198818081886BEC08F08198E9
:101D20005BEC08F0819081886BEC08F081988186EB
:101D300081848182818081886BEC08F081985BECE2
:101D400008F00001C58112005DDC00C0C8F0010E82
:101D50007C6FD5C054F0D6C055F0D7C0D2F0D8C0F3
:101D6000D3F03AEC06F0010E016E0150010A01E1D8
:101D700039DC120096EC0FF0B886B06ACF0EAF6E69
:101D8000AC8437DE020E0B6E040E0C6EBA0E0D6EB6
:101D90000D2EFED70C2EFCD70B2EFAD700000F0EFF
:101DA000C112070EB4129280D46B816A936A949028
:101DB000949482907E6B800E7E19006E800E020AD3
:101DC000005C1BE2070ED56F200ED66F000ED76F9A
:101DD000D86F7E51D527000E7EBFFF0ED623000E92
:101DE000D6BFFF0ED76FD86F05DD0050FF0A02E1A6
:101DF000829401D082847E2BDED743DF010EE76F11
:101E000009EC09F00C0EE76F09EC09F0000ED56F34
:101E1000050ED66F400ED76F050ED86F95DF020EF8
:101E20000B6E040E0C6EBA0E0D6E0D2EFED70C2E20
:101E3000FCD70B2EFAD700000001010EE76F09EC6A
:101E400009F080A00BD0010ED96F010EDA6F290EB8
:101E5000DB6F000EDC6F56DCF8DD0BD0010E0001ED
:101E6000D96F010EDA6F430EDB6F000EDC6F4ADCB8
:101E70005CDEE2D7FFD709022900010100803209A8
:101E800004000002030000000921010100012221D9
:101E900000070581034000010705010340000152CE
:101EA000554E204D4F44450050524F4752414D4DE5
:101EB000494E472E2E2E2E2E0050524F4752414D46
:101EC000204D4F4445000600FF0901A101190129D9
:101ED00040150026FF007508954081021901294030
:101EE000750895409102C0120100020000000834FC
:101EF000120100010001020001434F4E4E454354C0
:101F0000454420544F2050432E00100356005400E7
:101F100020004C006100620073000E035600540064
:101F2000200050004C0043000403090410EE29F087
:101F3000270E006E010E016E9F0EF66E1E0EF76EDE
:101F4000000EF86EF2EC0BF010EE81F0110E006E48
:101F5000010E016EF90EF66E1E0EF76E000EF86E93
:101F6000F2EC0BF01200FFFFFFFFFFFFFFFFFFFF90
:101F7000FFFFFFFFFFFFFFFFFFFFFFFFFFFFFFFF71
:101F8000FFFFFFFFFFFFFFFFFFFFFFFFFFFFFFFF61
:101F9000FFFFFFFFFFFFFFFFFFFFFFFFFFFFFFFF51
:101FA000FFFFFFFFFFFFFFFFFFFFFFFFFFFFFFFF41
:101FB000FFFFFFFFFFFFFFFFFFFFFFFFFFFFFFFF31
:101FC000FFFFFFFFFFFFFFFFFFFFFFFFFFFFFFFF21
:101FD000FFFFFFFFFFFFFFFFFFFFFFFFFFFFFFFF11
:101FE000FFFFFFFFFFFFFFFFFFFFFFFFFFFFFFFF01
:101FF000FFFFFFFFFFFFFFFFFFFFFFFFFFFFFFFFF1
:102000001200FFFFFFFFFFFFFFFFFFFFFFFFFFFFCC
:020000040030CA
:0E000000210C3F1EFF8081FF0EC00FE00F405D
:00000001FF
