:1000000099EF02F00000000000EF00F00000000097
:0A0010000000000000000000F3D71C
:0E001C000000000000000000000000001200C4
:10002A002B0E0C6EDA0E0D6E0D2EFED70C2EFCD793
:04003A0000001200B0
:0E003E00630E0D6E0D2EFED7000000001200A6
:10004C00086A096A100E0C6E013408360936045021
:10005C00085E0550D8A0053C095ED8B007D0045006
:10006C0008260550D8B0053C0926D8900036013634
:06007C000C2EEAD7120071
:10008200000174BF02D0819601D0818674BD02D076
:10009200819401D0818474BB02D0819201D081828B
:1000A20074B902D0819001D081802BB002D0818AB4
:1000B20001D0819A8188B1DF819874B702D081968C
:1000C20001D0818674B502D0819401D0818474B349
:1000D20002D0819201D0818274B102D0819001D08C
:1000E20081802BB002D0818A01D0819A818895DFEC
:0E00F20081982BA002D098DF01D0A0DF120071
:100100005D6A050E5D5C0AE25D505B24E16E000EE7
:100110005C20E26E200EE66E5D2AF3D75D505B2414
:10012000E16E000E5C20E26EE66A5D065D505B24C7
:100130005E6E000E5C205F6E0A0E046E000E056E91
:1001400059C000F05AC001F081DF08C000F009C0BA
:1001500001F0300E00265EC0E1FF5FC0E2FF00C08C
:10016000E6FF0A0E046E000E056E59C000F05AC07C
:1001700001F06CDF00C059F001C05AF0000E011808
:1001800002E1000E001801E102D05D06CFD7120097
:0C0190002B9059C074F075DF2B8012001A
:10019C00556A566A4FC057F050C058F0800E501830
:1001AC00006E800E005C02E1000E4F5C0BE2010E53
:1001BC00556E000E566E4F500008576E50C058F0DA
:1001CC00000E585657C059F058C05AF051C05BF049
:1001DC0052C05CF08FDF060E536E000E546E000E94
:1001EC00006E5450005C02E15350000819E2535069
:1001FC005124E16E54505220E26E010E535C006E9D
:10020C00000E5458016E00505124E96E01505220DA
:10021C00EA6EEECFE6FF010E535E000E545ADFD7A6
:10022C0051C0E1FF52C0E2FF200EE66E5550561051
:10023C001AE0536A546A53505124E96E54505220B8
:10024C00EA6EEE50200A03E1534A542AF4D7010E09
:10025C00535E000E545A53505124E16E54505220A8
:08026C00E26E2D0EE66E120099
:100274000FD0800E4F6E19D0C00E4F6E16D0940E54
:100284004F6E13D0D40E4F6E10D0800E4F6E0DD023
:100294004F50010AEEE04F50020AEEE04F50030ABD
:1002A400EEE04F50040AEEE0F0D75004006E4F50D9
:1002B400002600C04FF000C074F0E1DE2B90536ABA
:1002C40053505124E96E000E5220EA6EEE520BE0B8
:1002D40053505124E96E000E5220EA6EEECF59F0CD
:0A02E40055DF532AEDD72B801200DE
:0A02EE00000EACB2010E006E12000B
:0A02F800000E9EBA010E006E120007
:0E030200ACB202D00000FCD74FC0ADFF12001D
:0E03100070C073F06EC071F06FC072F012001A
:10031E00AECF01F0ABA202D0AB98AB8801C000F01B
:02032E001200BB
:100330009398939A93909392939493968198819A99
:10034000819681948192819070DE6FDE6EDE818273
:100350008180818863DE819868DE81885FDE819894
:1003600064DE81885BDE819860DE8190818856DE64
:1003700081985BDE818852DE8198819281868188B6
:100380004DDE819852DE81968180818847DE81989A
:100390008190818843DE819848DE81883FDE8198A4
:1003A000818081883BDE819840DE8190818836DEC5
:1003B0008198818681848182818081882FDE8198E5
:0603C00034DE2B80120068
:1003C6000900F5CFE6FF0006FBE10106F9E11200A0
:1003D60080A080D02C6A800E2C18006E800E110A28
:1003E600005C21E2020E4F6E89DF4E0E0C6EEB0EA4
:1003F6000D6E0D2EFED70C2EFCD77BDF005211E0C2
:10040600600E4D6E000E4E6E2C504D26000E2CBE0C
:10041600FF0E4E2281DF4DC0E1FF4EC0E2FF00C05D
:10042600E6FF2C2AD8D771DF110E2C6E800E2C1801
:10043600006E800E140A005C1BE256DF005201E1DA
:10044600FCD7600EE96E000EEA6E2C50E926000E0F
:100456002CBEFF0EEA22EECF4FF050DF4E0E0C6E92
:10046600EB0E0D6E0D2EFED70C2EFCD72C2ADED7EA
:1004760060C04FF061C050F0350E516E000E526EE6
:100486008ADE71C04FF072C050F02D0E516E000E14
:10049600526E81DE010E4F6E0B0E506E350E516E92
:1004A600000E526EE4DE020E4F6E0B0E506E2D0ED7
:1004B600516E000E526EDBDE070E0B6E170E0C6EC3
:1004C6006A0E0D6E0D2EFED70C2EFCD70B2EFAD70C
:0604D60000007ED71200B9
:1004DC00020E416E030E426E4F0E436E000E446EC2
:1004EC001E0E3D6E030E3E6E000E3F6E000E406EF5
:1004FC00F80E456E020E466E000E476E000E486EEC
:10050C00EE0E496E020E4A6E000E4B6E000E4C6ED5
:10051C00AC8A900EAB6E948E949C9EAA03D0AECFF8
:06052C0000F0FBD71200F5
:10053200F1EC02F00F0EC112070EB412928000010C
:10054200606B616B716B726B816A936AF0DE010E94
:10055200746F96DD0E0E746F93DD010E4F6E010EF9
:10056200506E150E516E000E526E83DE020E4F6EED
:10057200010E506E200E516E000E526E7ADE100E7B
:100582000B6E390E0C6E0D0E0D6E0D2EFED70C2E4F
:10059200FCD70B2EFAD700000000B886020EB06E10
:1005A200700EAF6EAC8499DF040E0B6E0C0E0C6EE7
:1005B200330E0D6E0D2EFED70C2EFCD70B2EFAD756
:0A05C2000000000007DFFED7FFD79E
:1005E20010EE15F0160E006E010E016ECC0EF66EB8
:0E05F200050EF76E000EF86EE3EC01F012003D
:0B05CC004144432056616C75653A0005
:0B05D7004441432056616C75653A00FA
:020000040030CA
:0E000000000C1F1EFF8381FF0FC00FE00F409A
:00000001FF
