:0400000044EF01F0D8
:1000080000C016F001C015F09EAA17D09E9ABFD85E
:1000180000C01BF00050350A03E1246A25800DD08A
:10002800260EE16E000EE26E2450E126000E24BE7C
:10003800FF0EE2221BC0E6FF242A16C000F015C0FE
:0400480001F01100B2
:10004C00240E0C6EB50E0D6E0D2EFED70C2EFCD79D
:06005C000000000012008C
:0C00620000000000000000000000120080
:0A006E00530E0D6E0D2EFED712008A
:1000780040BE02D0819601D0818640BC02D08194D6
:1000880001D0818440BA02D0819201D0818240B8E7
:1000980002D0819001D0818025B202D0818A01D01E
:1000A800819A8188DADF819840B602D0819601D0A2
:1000B800818640B402D0819401D0818440B202D0BC
:1000C800819201D0818240B002D0819001D081809C
:1000D80025B202D0818A01D0819A8188BEDF8198B9
:0C00E80025A202D0AFDF01D0BEDF120065
:0C00F40025923FC040F0BEDF25821200C4
:100100009398939A93909392939493968198819ACB
:10011000819681948192819099DF98DF97DF818227
:10012000818081889EDF819891DF81889ADF819824
:100130008DDF818896DF819889DF8190818891DFCA
:10014000819884DF81888DDF819881928186818882
:1001500088DF81987BDF81968180818882DF81982A
:10016000819081887EDF819871DF81887ADF819834
:100170008180818876DF819869DF8190818871DF55
:100180008198818681848182818081886ADF8198DB
:060190005DDF2582120074
:10019600AECF01F0ABA202D0AB98AB8801C000F0A5
:0201A600120045
:1001A800FF0E366EFF0E376EFF0E386EFF0E396E7D
:1001B800960E176E010E186E000E196E000E1A6E4E
:1001C800FF0E206EFF0E216E000E226E000E236EB3
:1001D800FF0E1C6EFF0E1D6E000E1E6E000E1F6EB3
:1001E800AC8A900EAB6E948E949C9EAA03D0AECF30
:0601F80000F0FBD712002D
:1001FE000900F5CFE6FF0006FBE10106F9E112006A
:10020E000FD0800E3A6E19D0C00E3A6E16D0940EE4
:10021E003A6E13D0D40E3A6E10D0800E3A6E0DD0C8
:10022E003A50010AEEE03A50020AEEE03A50030A62
:10023E00EEE03A50040AEEE0F0D73B04006E3A507E
:10024E00002600C03AF000C040F00FDF25923E6A53
:10025E003E503C24E96E000E3D20EA6EEE520BE05D
:10026E003E503C24E96E000E3D20EA6EEECF3FF08C
:0A027E003ADF3E2AEDD72582120078
:100288000F0EC112070EB41237DF010E406EF0DEFA
:100298000C0E406EEDDE25909D8AF28EF28CB886AB
:1002A800020EB06E080EAF6EAC847ADF25A00DD0BA
:1002B800010E406EDDDE010E3A6E010E3B6E260E1B
:1002C8003C6E000E3D6E9FDF2590030E0B6E8A0E6E
:1002D8000C6E550E0D6E0D2EFED70C2EFCD70B2E68
:0A02E800FAD700000000E2D7FFD7AC
:020000040030CA
:0E000000000C1F1EFF8381FF0FC00FE00F409A
:00000001FF
