:040000007DEF0BF095
:1000080000C01EF001C01DF002C01CF003C01BF0B0
:1000180004C01AF005C019F008C018F009C017F09C
:100028000AC016F00BC015F0E1CF27F0E2CF28F098
:10003800E9CF25F0EACF26F0F3CF23F0F4CF24F070
:10004800F5CF22F0F8CF1FF0F7CF20F0F6CF21F050
:1000580041EC09F022C0F5FF1FC0F8FF20C0F7FFF0
:1000680021C0F6FF23C0F3FF24C0F4FF1EC000F038
:100078001DC001F01CC002F01BC003F01AC004F040
:1000880019C005F018C008F017C009F016C00AF02A
:1000980015C00BF025C0E9FF26C0EAFF27C0E1FF25
:0600A80028C0E2FF110078
:1000AE001E0E716E100E00019B6F040E9C6F9BC096
:1000BE00E1FF9CC0E2FFE69E9BC0E1FF9CC0E2FF19
:1000CE00E69C040E9B25E16E000E9C21E26EE68CF2
:1000DE00180EA56F040EA66FA5C0E1FFA6C0E2FF25
:1000EE00E69EA5C0E1FFA6C0E2FFE69C040EA52594
:1000FE00E16E000EA621E26EE68C020E9B25E16EED
:10010E00000E9C21E26E43C0E6FF44C0E6FF010EE6
:10011E009B25E16E000E9C21E26E400EE66E9BC0AA
:10012E00E9FF9CC0EAFFEECF00F09BC0E1FF9CC050
:10013E00E2FF400E0014E66E9BC0E9FF9CC0EAFF92
:10014E00EECF00F09BC0E1FF9CC0E2FF880E0010D6
:10015E00E66E9BC09DF09CC09EF0040E9B19006E37
:06016E0000C09BF012002E
:100174000B6A0A6A096A00500402F4CF09F0F3CF4B
:1001840008F001500502F4CF0BF0F3CF0AF0005051
:100194000502F3500926F4500A22E86A0B220150A2
:1001A4000402F3500926F4500A22E86A0B2208C01C
:1001B40000F009C001F00AC002F00BC003F0120005
:1001C40004012251010A0FE120C401F01F0E01169F
:1001D4000150000A08E1408E2151030A03E1010E97
:1001E400456E01D0456A2251000AD8A48BD020C4A0
:1001F40001F01F0E01160150020AD8A483D024C4B2
:1002040001F00F0E01160150000AD8B47BD0408EC5
:1002140024BF16D024C403F00F0E031603C000F04D
:10022400000E016E003600900136990E0024E96E2E
:10023400000E0120EA6EEECF04F0EECF05F015D0EB
:1002440024C403F00F0E031603C000F0000E016E69
:10025400003600900136A30E0024E96E000E012042
:10026400EA6EEECF04F0EECF05F02151030A07E168
:1002740004C0E1FF05C0E2FF840EE66E43D024C44F
:1002840000F00F0E0016700E026E0F0E036E00507B
:100294000226D8B0032A02C0E9FF03C0EAFFFE0E1B
:1002A400EE14006EEECF01F0FF0E011602C0E1FF66
:1002B40003C0E2FF00C0E6FF01C0E6FF24AF11D097
:1002C40004C0E1FF05C0E2FFE66A040E0418006EF4
:1002D40000C004F004C0E1FF05C0E2FF400EE66E7A
:1002E40011D004C0E1FF05C0E2FF880EE66E040EE3
:1002F4000418006E00C004F004C0E1FF05C0E2FF72
:06030400C80EE66E1200B7
:10030A0020C401F01F0E01160150010A01E08FD02E
:10031A0004012451000A01E08AD02151060A41E170
:10032A0036D00001A851010A17E17C0E006E170EA3
:10033A00016E000E026E120E0026000E012202222B
:10034A0000C03DF001C03EF002C03FF0090E416E10
:10035A00000E426EC00E406E24D00001A851010A60
:10036A0012E1A50E006E170E016E000E026E00C09D
:10037A003DF001C03EF002C03FF0210E416E000E7A
:10038A00426EC00E406E0DD0800E406E0AD004013F
:10039A002351210AC6E02351220ADFE02351230A0E
:1003AA00F3E020C401F0600E0116050E006E005045
:1003BA0004E00132019EFF0FFBD70150010A01E060
:1003CA0036D022D034D033D0960E3D6E000E3E6E1B
:1003DA00010E416E000E426EC10E406E28D0800E94
:1003EA00406E23C496F023D0950E3D6E000E3E6EED
:1003FA00010E416E000E426E810E406E18D0800EC4
:10040A00406E22C495F013D004012151010ADAE0AA
:10041A002151090AD8E02151020AD6E021510A0ADB
:10042A00DEE02151030AE0E021510B0AE8E0120064
:10043A00000E425C02E1080E415C11E241C003F089
:10044A0042C004F000018B51000A03E1010E8B6FD8
:10045A0005D08B51010A02E1020E8B6F04D0080EFF
:10046A00036E000E046E0001A3C0E1FFA4C0E2FF08
:10047A00E692A3C0E1FFA4C0E2FFE690A3C0E9FFB1
:10048A00A4C0EAFFEECF00F0A3C0E1FFA4C0E2FFE0
:10049A0004500010E66E010EA325E16E000EA421A1
:1004AA00E26E03C0E6FF0350415C006E04504258FE
:1004BA00016E00C041F001C042F0280EA16F040E87
:1004CA00A26F40B02FD0035004102BE03DC0F6FFBE
:1004DA003EC0F7FF3FC0F8FF0900F5CF00F0A1C00A
:1004EA00E1FFA2C0E2FF00C0E6FFA14BA22B010E72
:1004FA003D24006E000E3E20016E000E3F20026E6B
:10050A0000C03DF001C03EF002C03FF0010E035CA6
:10051A00006E000E0458016E00C003F001C004F022
:10052A00D2D724D00350041021E03DC0E9FF3EC0D9
:10053A00EAFFA1C0E1FFA2C0E2FFEECFE6FFA14BB6
:10054A00A22B010E3D24006E000E3E20016E00C05B
:10055A003DF001C03EF0010E035C006E000E04582F
:0E056A00016E00C003F001C004F0DCD71200E7
:1005780004012051800AD8A473D0C00E406E65D003
:10058800E60E006E170E016E000E026E00C03DF002
:1005980001C03EF002C03FF0120E416E000E426EE6
:1005A8005FD0030E006E000E016E22C404F0000E30
:1005B800056EDCDD360E0024E96E000E0120EA6EC1
:1005C800EECF3DF0EECF3EF0EECF3FF0020E3D24F1
:1005D800F66E000E3E20F76E000E3F20F86E090002
:1005E800F5CF00F00900F5CF01F000C041F001C0DF
:1005F80042F036D022510001B05D23E3030E006EB5
:10060800000E016E22C404F0000E056EAFDD2D0E43
:100618000024E96E000E0120EA6EEECF3DF0EECF29
:100628003EF0EECF3FF03DC0F6FF3EC0F7FF3FC0C3
:10063800F8FF0900F5CF00F000C041F0000E426E4F
:1006480001D0406A0DD0406A0BD004012351010A41
:1006580097E02351020AA5E02351030ACBE0F3D720
:0206680012007E
:10066A00408E716A0001AC6B22C4A8F0A851000A3E
:10067A0003E1100E9F6F03D0200E9F6F13DD12004F
:10068A000401286B296B42D0408E28814550010A0B
:10069A00D8B4288350D0408E4ED0408E24BF16D076
:1006AA0024C403F00F0E031603C000F0000E016EFF
:1006BA00003600900136990E0024E96E000E0120E2
:1006CA00EA6EEECF04F0EECF05F015D024C403F0A5
:1006DA000F0E031603C000F0000E016E00360090E4
:1006EA000136A30E0024E96E000E0120EA6EEECF59
:1006FA0004F0EECF05F004C0E9FF05C0EAFFEECF33
:10070A0001F001A402D0010E286F15D020C401F017
:10071A001F0E01160150000AB7E020C401F01F0E97
:10072A0001160150010AB7E020C401F01F0E01169C
:10073A000150020AB2E040AE07D0280E3D6E040E08
:0A074A003E6E4080020E416E120068
:10075400CCC0C9FFC7B002D00000FCD7C9CF00F09D
:02076400120081
:0A0766000001A95301E0CEDD1200EE
:10077000F250026EF29E0500FF6A0150FE6E0050BC
:08078000FD6E02BEF28E1200B4
:0E078800160E6F6E9F0E6B6E3B0E696E1200AA
:100796000001C96BCA6BCB6B020EC625F66E000E46
:1007A600C721F76E000EC821F86E0900F5CF05F0D7
:1007B600030EC625F66E000EC721F76E000EC82181
:1007C600F86E0900F5CF00F000C003F0000E046ECD
:1007D60003C001F0006A05500024066E000E0120D9
:1007E600076EC6C008F0C7C009F0C8C00AF0010EFF
:1007F6000824F66E000E0920F76E000E0A20F86E29
:100806000900F5CF01F00150020A1BE1060E08248B
:10081600F66E000E0920F76E000E0A20F86E09002B
:10082600F5CF01F00150C95D0CE2060E0824F66E04
:10083600000E0920F76E000E0A20F86E0900F5CFAB
:10084600C9F0010E0824F66E000E0920F76E000EA0
:100856000A20F86E0900F5CF01F00150040A1BE1E9
:10086600080E0824F66E000E0920F76E000E0A2008
:10087600F86E0900F5CF01F00150C95D0CE2080ED3
:100886000824F66E000E0920F76E000E0A20F86E98
:100896000900F5CFC9F008C0F6FF09C0F7FF0AC086
:1008A600F8FF0900F5CF00F00050CA25016E000ED2
:1008B600CB21026E01C0CAF002C0CBF00750025C29
:1008C60002E10650015C01E30FD008C0F6FF09C043
:1008D600F7FF0AC0F8FF0900F5CF00F00050082620
:0E08E600000E09220A2283D7C9C000F01200BA
:1008F400E60E006E170E016E000E026E0E0E002440
:10090400F66E000E0120F76E000E0220F86E09004C
:10091400F5CF03F003C004F00F0E0024F66E000EB2
:100924000120F76E000E0220F86E0900F5CF01F0E9
:100934000150035C12E2E60E006E170E016E000E0B
:10094400026E0F0E0024F66E000E0120F76E000EEC
:100954000220F86E0900F5CF04F0E60E006E170EC3
:10096400016E000E026E100E0024F66E000E0120C1
:10097400F76E000E0220F86E0900F5CF01F0015069
:10098400045C12E2E60E006E170E016E000E026E9B
:10099400100E0024F66E000E0120F76E000E0220E9
:0E09A400F86E0900F5CF04F004C000F0120058
:1009B20020C401F0600E0116050E006E005004E026
:1009C2000132019EFF0FFBD70150000A01E05AD00D
:1009D20036D0408E080E00019F6F54D0CCDD52D02D
:1009E20043DE50D0A80E3D6E000E3E6E4080010EDA
:1009F200416E408E47D048DE45D0E2EC00F042D056
:100A0200AC0E006E000E016E24510026D8B0012AF1
:100A120000C03DF001C03EF04080010E416E408EAC
:100A220031D0408EAC0EE16E000EE26E2451E12612
:100A3200D8B0E22A22C4E6FF25D024D023D0040174
:100A42002151050AC6E02151060AC8E02151090ACE
:100A5200C7E02151080AC6E02151000ACCE0215129
:100A6200010ACBE02151030AC8E021510A0AC8E079
:100A720021510B0AD6E02151070ADFE021510C0A6D
:060A8200DDE0DCD71200EC
:100A88007C0E366E170E376E000E386E080E2D6E01
:100A9800180E2E6E000E2F6EF80E306E170E316E79
:100AA800000E326EC60E336E170E346E000E356EA3
:020AB80012002A
:100ABA000001A06BA3C0E1FFA4C0E2FFE66A040E36
:100ACA00A319E16EA4C0E2FF000EE21AE66A8EAF35
:060ADA0001D08E9F120006
:100AE0000001C751000A12E0C6C000F0000E016EFE
:100AF000003600900136A30E0024E96E000E01209E
:100B0000EA6EEECF04F0EECF05F011D0C6C000F0D3
:100B1000000E016E003600900136990E0024E96E39
:100B2000000E0120EA6EEECF04F0EECF05F0020ECB
:100B30000424E16E000E0520E26EC8C0E6FFC9C0C5
:100B4000E6FF010E0424E16E000E0520E26ECAC02D
:100B5000E6FF04C0E9FF05C0EAFFEECF00F004C0E5
:100B6000E1FF05C0E2FF400E0014E66E04C0E9FF9D
:100B700005C0EAFFEECF00F004C0E1FF05C0E2FFD0
:100B8000880E0010E66EC751000A1BE0C6C000F0D8
:100B9000000E016E003600900136A30E0024026E96
:100BA000000E0120036E02C0E9FF03C0EAFF040E3D
:100BB000EE18006E02C0E1FF03C0E2FF00C0E6FFD6
:100BC0001AD0C6C000F0000E016E0036009001364B
:100BD000990E0024026E000E0120036E02C0E9FF90
:100BE00003C0EAFF040EEE18006E02C0E1FF03C06E
:100BF000E2FF00C0E6FF04C000F005C001F01200F3
:100C0000000E0001C71902E1000EC61902E1016AD7
:100C10000AD0C6C0E9FFC7C0EAFFEECF00F0000E61
:0C0C200000BE010E016E01C000F01200C9
:100C2C00010E00019725E96E000E9821EA6EEECFB9
:100C3C0000F000C002F0000E905D02E102508F5DEA
:100C4C0003E28FC002F00AD002508F5D006E000EDE
:100C5C009059016E00C08FF001C090F0036A0250F1
:100C6C00035C1CE2280EE96E040EEA6E0350E926C2
:100C7C00D8B0EA2AEECF00F08CC0E1FF8DC0E2FFC5
:100C8C0000C0E6FF010E8C25006E000E8D21016E5A
:100C9C0000C08CF001C08DF0032AE1D7000E006E6D
:100CAC009051005C02E18F51000828E2010EAA2548
:100CBC00E16E000EAB21E26E080EE66E020EAA2566
:100CCC00E16E000EAB21E26E280EE66E040EE66EAF
:100CDC0097C0E9FF98C0EAFFEECF00F000BC07D048
:100CEC00AAC0E1FFABC0E2FFC80EE66E06D0AAC0F8
:100CFC00E1FFABC0E2FF880EE66E19D0010EAA250B
:100D0C00E16E000EAB21E26E080EE66E020EAA2515
:100D1C00E16E000EAB21E26E200EE66E040EE66E66
:100D2C00AAC0E1FFABC0E2FF840EE66E8E9F1200FC
:100D3C006D9840BE4AD000018EAF28D0020EA06F35
:100D4C00010EA325E16E000EA421E26EE66AA3C09B
:100D5C00E1FFA4C0E2FFC80EE66E010EAA25E16E0B
:100D6C00000EAB21E26E080EE66E020EAA25E16EB5
:100D7C00000EAB21E26E280EE66E040EE66EAAC0E3
:100D8C00E1FFABC0E2FFC80EE66E1ED0010EAA2535
:100D9C00E16E000EAB21E26E080EE66E020EAA2585
:100DAC00E16E000EAB21E26E200EE66E040EE66ED6
:100DBC00AAC0E1FFABC0E2FF8C0EE66EA3C0E1FF60
:100DCC00A4C0E2FF840EE66E81D000018EBF7ED0FF
:100DDC00040120AF53D04250275D02E14150265D03
:100DEC0004E226C441F027C442F01DEC02F0010ECF
:100DFC000001A06F010EAA25E16E000EAB21E26E80
:100E0C00080EE66E020EAA25E16E000EAB21E26E14
:100E1C00200EE66E040EE66EAAC0E1FFABC0E2FF48
:100E2C00800EE66EA76B010E9725E16E000E9821E1
:100E3C00E26E080EE66E020E9725E16E000E98210A
:100E4C00E26E200EE66E040EE66E97C0E1FF98C0CF
:100E5C00E2FF840EE66E010EA76F020EA325E16E73
:100E6C00000EA421E26E280EE66E040EE66EA3C000
:100E7C00E1FFA4C0E2FFC80EE66E28D00001020E0E
:100E8C00A06F010EA325E16E000EA421E26EE66AAE
:100E9C00A3C0E1FFA4C0E2FFC80EE66E010EAA25B6
:100EAC00E16E000EAB21E26E080EE66E020EAA2574
:100EBC00E16E000EAB21E26E280EE66E040EE66EBD
:0E0ECC00AAC0E1FFABC0E2FFC80EE66E120046
:0A0EDA00D08EA28AA08AF28E1200C8
:040EE400A19A1200BD
:100EE8006D92699468A403D0FB0E6816FBD71200B4
:100EF80000019F51000A0AE16D6A696A41DCE9DF75
:0E0F08006DB602D06D86FCD7010E9F6F1200F1
:100F16000001C56B200E9F5D03E36DB201D002D0C8
:100F2600006A2DD09DC0C6F09EC0C7F066DE005296
:100F360025E19DC0C3F09EC0C4F0000E9E1902E1DB
:100F4600000E9D190AE0010EC325E96E000EC421AC
:100F5600EA6EEECF00F000C0C5F0C2C0C6F0C76BA7
:100F6600BFC0C8F0C0C0C9F0C1C0CAF0B6DD00C07D
:100F76009DF001C09EF0C5C000F001D0006A1200CD
:100F8600B6DC00C0BFF07C0E0001C66F170EC76F3F
:100F9600000EC86FCBEC03F000C0C0F0BF51005C80
:0E0FA60003E2BFC000F002D0C0C000F0120095
:100FB400040E0001A319006E00C0A3F09F51080A9B
:100FC4000AE122C46EFF6E50000803E2100E9F6F08
:100FD40002D0040E9F6FA051010A3CE1020EA3252A
:100FE400E16E000EA421E26E280EE66E040EE66E9B
:100FF4001DEC02F000018B51020A07E1A3C0E1FFDE
:10100400A4C0E2FF840EE66E24D0040EA319006E81
:1010140000C0A3F0A3C0E9FFA4C0EAFFEECF00F034
:1010240000BC0CD0040EA319006E00C0A3F0A3C032
:10103400E1FFA4C0E2FFC80EE66E0BD0040EA319B4
:10104400006E00C0A3F0A3C0E1FFA4C0E2FF880EBD
:08105400E66E01D030DD120050
:10105C0015DD00019D6B9E6BAD6BAE6B6A6A686AA9
:10106C00C4EC03F06D8C6E6A716A6D9CB26BB36BE1
:10107C00000EB35D02E1080EB25D17E2B2C000F0E3
:10108C00B3C001F0003600900136003600900136F6
:10109C00000E0024E16E040E0120E26EE66AE66AA0
:1010AC00E66AE66AB24BB32BE3D7160E706E68A6EF
:1010BC0003D0F70E6816FBD7406A8E6B8F6B906B64
:1010CC006D98080EA36F040EA46FA86B9F6B120093
:1010DC000001A051020A02E1A3DD1ED0E8DCA751F9
:1010EC00000A19E1010EAA25E16E000EAB21E26E99
:1010FC00080EE66E020EAA25E16E000EAB21E26E22
:10110C00200EE66E040EE66EAAC0E1FFABC0E2FF55
:0A111C008C0EE66E01D0A76B1200E6
:101126002BC0E1FF2CC0E2FFBFC0E6FF29C000F0E4
:0E1136002AC001F0B8EC03F0000E016E1200AA
:1011440005010051100A03E0010E006E17D0015191
:10115400020A03E0010E006E11D002C5B1F0025183
:10116400E00A0AE103C5B9F004C5B8F005C5B7F053
:0E11740006C5B6F0006A02D0010E006E120031
:10118200A3C0E9FFA4C0EAFFEECF00F000AE05D095
:10119200A3C0E1FFA4C0E2FFE66A00018B6BA06B73
:1011A200416A426A406A04DCB3EC03F0C6DD120015
:1011B20070A019D097C0E9FF98C0EAFFEECF01F006
:1011C2000150800A0FE1A3C0E9FFA4C0EAFFEECFFD
:1011D20001F00150840A06E197C0E1FF98C0E2FFE6
:0C11E2008C0EE66E7090DF0E6816120096
:0A11EE006984EF0E68166D8212008E
:1011F800C6DE00C0B0F0010EA96FBBC043F0BCC092
:1012080044F0BDC0B4F0BEC0B5F024DF010E016EDD
:0A1218000150010A01E16CDE120032
:10122200400E0001896F890789514008866F070EB9
:10123200886F87DF005223E10001865100081FE218
:101242008651B65D02E2B6C086F089C087F086514B
:10125200875D15E2460EE16E000EE26E8751E126D1
:10126200D8B0E22A000EE96E050EEA6E8851E92630
:10127200D8B0EA2AEECFE6FF882B872BE8D71200F8
:1012820000019F51010A07E16DBA05D0686A6980C1
:101292006988020E9F6F68A405D069A403D0FB0E73
:1012A200681621DE6DA202D01CDED4D068A018D050
:1012B20069A016D0D2DE040E9F6F200E0401026FC9
:1012C200040E036F080E016F000E0015006E00C0C1
:1012D20000F48C0E0011006E00C000F4FE0E6816C1
:1012E20068A805D069A803D081DFEF0E681668AC44
:1012F20004D069AC02D0BF0E681668AA03D069AAEE
:1013020001D056DF68A202D069B26A6A040E0001F7
:101312009F5D02E2E6DD9ED069A69BD0CE6B040EF5
:10132200CE5DD8B096D068A691D06CCFAFF0F70E54
:101332006816780EAF15016E0150000AD8A485D048
:10134200FD0EAF15016E026AFF0E0216000E0218A4
:1013520002E1000E01186BE17E0EAF15016E01C0B5
:1013620003F00332039E03C000F0000E016E00364C
:1013720000900136003600900136000E0024026E05
:10138200040E0120036E02C097F003C098F002C061
:10139200AAF003C0ABF0040EAA19006E00C0AAF0B6
:1013A20002C0E9FF03C0EAFFEECF00F000C001F087
:1013B2003C0E01160132019E0132019E01500D0ABE
:1013C20034E1020E9725E96E000E9821EA6EEECF07
:1013D20001F0EECF02F00250040A02E1280E0118D9
:1013E20022E1020E9725E16E000E9821E26E200E98
:1013F200E66E040EE66ECD6B080ECD5D14E2200E95
:10140200E16E040EE26ECD51E126D8B0E22A280E3A
:10141200E96E040EEA6ECD51E926D8B0EA2AEECF83
:10142200E6FFCD2BE9D7ACDE01D057DE0DD0FD0EA5
:10143200AF15016E026AFF0E0216000E021802E1DB
:10144200040E011801E1B5DD00D001D002D0CE2B8F
:0614520066D747DD120021
:10145800540E296E070E2A6ECC0E2B6E000E2C6EC3
:10146800FF0E396EFF0E3A6EFF0E3B6EFF0E3C6E9E
:10147800949E0001BB51040A02E1938201D0939229
:101488009380C66ABB51C612BD51C612BC51C71261
:10149800BD5305E0BE51000AD8B4C78C03D0BE5373
:0814A800D8A4C78CC68A12000B
:1014B0000900F5CFE6FF0006FBE10106F9E11200A5
:1014C00043C0BFF044C0C0F0400E0001C16F010E28
:0614D000C26F21DD1200D5
:1014D60000019F51000A0BE16D6A696AC4EC03F0D2
:1014E6006DB602D06D86FCD70001010E9F6F9F512D
:1014F600010A08E16DBA06D0686A696A6980698876
:10150600020E9F6F68A405D069A403D0FB0E68166F
:10151600E8DC6DA202D0E3DCD4D068A018D069A0C4
:1015260016D099DD040E9F6F200E0401026F040E83
:10153600036F080E016F000E0015006E00C000F468
:101546008C0E0011006E00C000F4FE0E681668A82E
:1015560005D069A803D048DEEF0E681668AC04D043
:1015660069AC02D0BF0E681668AA03D069AA01D07A
:101576001DDE68A202D069B26A6A040E00019F5D90
:1015860002E2ADDC9ED069A69BD0BC6B040EBC5DAE
:10159600D8B096D068A691D06CCFAFF0F70E68168B
:1015A600780EAF15016E0150000AD8A485D0FD0E45
:1015B600AF15016E026AFF0E0216000E021802E156
:1015C600000E01186BE17E0EAF15016E01C003F02F
:1015D6000332039E03C000F0000E016E0036009039
:1015E6000136003600900136000E0024026E040E0D
:1015F6000120036E02C097F003C098F002C0AAF063
:1016060003C0ABF0040EAA19006E00C0AAF002C017
:10161600E9FF03C0EAFFEECF00F000C001F03C0E88
:1016260001160132019E0132019E01500D0A34E17C
:10163600020E9725E96E000E9821EA6EEECF01F0B4
:10164600EECF02F00250040A02E1280E011822E150
:10165600020E9725E16E000E9821E26E200EE66ED0
:10166600040EE66EBB6B080EBB5D14E2200EE16E47
:10167600040EE26EBB51E126D8B0E22A280EE96ECE
:10168600040EEA6EBB51E926D8B0EA2AEECFE6FF91
:10169600BB2BE9D773DD01D01EDD0DD0FD0EAF15D6
:1016A600016E026AFF0E0216000E021802E1040E17
:1016B600011801E17CDC00D001D002D0BC2B66D73A
:0416C6000EDC120024
:1016CA0081940001876B400E875D10E2460EE96E39
:1016DA00000EEA6E8751E926D8B0EA2AEECFBFF0AB
:1016EA001DDD00C086F00001872BEDD78184120032
:1016FA000F0EC112070EB41293948184020E0001D8
:10170A00BB6FBC6BBD6BBE6BA2DE030E0B6E8A0E8B
:10171A000C6E550E0D6E0D2EFED70C2EFCD70B2E11
:10172A00FAD700000000000EBB6F050EBC6F500E0A
:10173A00BD6F050EBE6F5BDDC9DEBDDE00C08AF07F
:10174A000050000A06E068DD000189513F0A01E104
:10175A00B7DF060E0B6E130E0C6EAD0E0D6E0D2E50
:10176A00FED70C2EFCD70B2EFAD700000000E4D7C8
:02177A00FFD797
:10177C000902290001010080320904000002030063
:10178C00000009210101000122210007058103400D
:09179C00000107050103400001F2
:1017A5000600FF0901A10119012940150026FF00C6
:1017B50075089540810219012940750895409102E7
:0117C500C063
:1017C6002003550053004200200048004900440011
:1017D60020004C006900620072006100720079000E
:1017E600120100020000000834120100010001028B
:0217F6000001F0
:1017F8001003560054005F004C0061006200730043
:0418080004030904C8
:020000040030CA
:0E000000040C3F1EFF8381FF0FC00FE00F4076
:00000001FF
