:100000007529FF3FFF3F3034FF00030E8301C2001C
:100010000A08C1008A017008A0008C1ED3281A08A3
:10002000A800A30A2308013A031D1C282608C300C0
:100030004308C7006B21D3282308023A031D262852
:100040002708C3004308C7006B21D3282308033ABD
:10005000031D30282908C3004308C7006B21D3289B
:100060002308043A031D3A282A08C3004308C7009E
:100070006B21D3282308053A031D44283908C300FF
:100080004308C7006B21D3282308063A031D4E28D6
:100090003A08C3004308C7006B21D3282308073A56
:1000A000031D58283708C3004308C7006B21D32815
:1000B0002308083A031D62283808C3004308C70014
:1000C0006B21D3282308093A031D6C283B08C30081
:1000D0004308C7006B21D32823080A3A031D76285A
:1000E0003C08C3004308C7006B21D32823080B3A00
:1000F000031D80283F08C3004308C7006B21D32895
:1001000023080C3A031D8A284008C3004308C7008F
:100110006B21D32823080D3A031D94283D08C30002
:100120004308C7006B21D32823080E3A031D9E28DD
:100130003E08C3004308C7006B21D32823080F3AA9
:10014000031DA8283508C3004308C7006B21D32826
:100150002308103A031DB2283608C3004308C7001D
:100160006B21D3282308113A031DBC280808C300BB
:100170004308C7006B21D3282308123A031DC32864
:100180002808A400D3282308133A031DCA282808E6
:10019000A500D3282308143A031DD2282808860076
:1001A000A301D328D3282008F00041088A00420E7A
:1001B0008300FF0E7F0E09008312031345088A0097
:1001C0004408820008001D3083120313FD00FD0B5C
:1001D000E7280800FF3083120313AC00FF30AD00A6
:1001E000FF30AE00FF30C3309F05C0309F002209B2
:1001F000F000700883169F059F1783121F140800D4
:10020000C330831203139F05C0309F004608F000DF
:10021000F00D7010F00D701070089F042209F000AE
:10022000700883169F059F1783121F14E3209F14E5
:100230009F1C1C29000018291F101E08F100F00146
:1002400083161E08F0040030F1040800FF3083120A
:100250000313B200FF30B300FF30B400FF30523060
:10026000AF000130B0002130B1000030831687129A
:10027000871107168312940140308316940083126D
:100280009416080083160313981690308312980072
:1002900083168717071383128C1E51291A08F00042
:1002A0004B290800831203132108930083161418A6
:1002B0005B290000562983121308F0000800DC2097
:1002C0008A110A128000840AC40A0319C50AF003BD
:1002D000031D5F2908008316031398187129000075
:1002E0006B29831247089900080028228312031300
:1002F0009701FF3083160317880089018312871343
:100300008813831603138117FF3095002F30850063
:10031000871483128801FF308316880083128601B8
:10032000831686010711831207158B170B17831687
:100330008C1667309900181542210330FB000830F5
:10034000FC007730FD00FD0BA329FC0BA329FB0B60
:10035000A329EA203430FC00F130FD00FD0BAE296A
:10036000FC0BAE290000000026210330FB00083002
:10037000FC007730FD00FD0BBB29FC0BBB29FB0B00
:10038000BB29A301A401A501871C202AC6010021C5
:1003900070088312A6007108A7000130C600002172
:1003A00070088312A9007108AA000230C60000215B
:1003B00070088312B9007108BA000330C60000212A
:1003C00070088312B7007108B8000430C60000211D
:1003D00070088312BB007108BC000530C600002104
:1003E00070088312BF007108C0000630C6000021EB
:1003F00070088312BD007108BE000730C6000021DE
:1004000070088312B5007108B60007110F3025057A
:10041000AB003030AB042B08A10052212408AB0004
:100420002B08A100522107150330FB000830FC0007
:100430007730FD00FD0B1A2AFC0B1A2AFB0B1A2A37
:10044000C429212AFF3FFF3FFF3FFF3FFF3FFF3F00
:1004500022308400013083120313F0000330C40003
:100460000030C5005F210800FF3FFF3FFF3FFF3F17
:04400E00F22F000786
:00000001FF
