:1000000098EF01F00000000000EF00F00000000099
:0A0010000000000000000000F3D71C
:06001C00000000001200CC
:100022000F0E0C6E470E0D6E0D2EFED70C2EFCD74A
:06003200000000001200B6
:0A003800210E0D6E0D2EFED71200F2
:1000420047BE02D0819601D0818647BC02D08194FE
:1000520001D0818447BA02D0819201D0818247B80F
:1000620002D0819001D0818029B002D0818A01D052
:10007200819A8188D2DF819847B602D0819601D0D9
:10008200818647B402D0819401D0818447B202D0E4
:10009200819201D0818247B002D0819001D08180CB
:1000A20029B002D0818A01D0819A8188B6DF8198F5
:0C00B20029A002D0B5DF01D0BEDF120093
:0A00BE00000E9EBA010E006E120043
:0C00C800299046C047F0B9DF29801200E3
:1000D400AECF01F0ABA202D0AB98AB8801C000F068
:0200E400120008
:0E00E600ACB202D00000FCD746C0ADFF120045
:1000F400E60E3A6E000E3B6E460E3C6E000E3D6EF2
:10010400D40E1D6E000E1E6E000E1F6E000E206EAD
:10011400BE0E216E000E226E000E236E000E246EA3
:10012400FF0E256EFF0E266E000E276E000E286E43
:10013400AC8A900EAB6E948E949C9EAA03D0AECFE4
:0601440000F0FBD71200E1
:10014A000900F5CFE6FF0006FBE10106F9E112001E
:10015A009398939A93909392939493968198819A71
:10016A00819681948192819057DF56DF55DF818293
:10017A00818081884EDF81984FDF81884ADF8198AC
:10018A004BDF818846DF819847DF8190818841DF94
:10019A00819842DF81883DDF8198819281868188BA
:1001AA0038DF819839DF81968180818832DF8198B2
:1001BA00819081882EDF81982FDF81882ADF8198BC
:1001CA008180818826DF819827DF8190818821DFDD
:1001DA008198818681848182818081881ADF8198D1
:0601EA001BDF298012005A
:1001F0000FD0800E3E6E19D0C00E3E6E16D0940EFB
:100200003E6E13D0D40E3E6E10D0800E3E6E0DD0DA
:100210003E50010AEEE03E50020AEEE03E50030A74
:10022000EEE03E50040AEEE0F0D73F04006E3E5090
:10023000002600C03EF000C047F003DF2990426A6C
:1002400042504024E96E000E4120EA6EEE520BE06F
:1002500042504024E96E000E4120EA6EEECF46F097
:0A02600033DF422AEDD72980120097
:10026A00446A456A425241E04250FF0AD8A4420613
:10027A0021DF0050000A01E1FBD727DF00C043F06D
:10028A0044503E24E16E000E3F20E26E00C0E6FFBD
:10029A00442A45504024E96E000E4120EA6EEE5091
:1002AA00431802E1452A09D0456A40C0E9FF41C026
:1002BA00EAFFEE504318D8B4452A45504024E96E67
:1002CA00000E4120EA6EEE50000A0EE14550445CF1
:1002DA00006E016A000E015A00503E24E16E015080
:1002EA003F20E26EE66A06D0BDD73EC0E1FF3FC0BE
:0602FA00E2FFE66A1200BB
:10030000416A3EC0E9FF3FC0EAFFEECF40F04050F7
:10031000000A0DE040C046F0E6DE412A41503E248E
:10032000E96E000E3F20EA6EEECF40F0F0D71200EB
:10033000700E156E690E166E630E176E310E186E06
:10034000380E196E660E1A6E780E1B6E1C6A070E3A
:10035000C16E070EB46E946A826A9290FEDE010E40
:10036000476E6FDE0E0E476E6CDEB886B06ACF0E3B
:10037000AF6EAC84BFDE020E0B6E040E0C6EBA0EB6
:100380000D6E0D2EFED70C2EFCD70B2EFAD70000CB
:1003900093948194FF0EFF090009000901E1FAD747
:1003A000150E3E6E000E3F6EABDF89DE005201E19E
:1003B000FCD72A0E3E6E000E3F6E780E406E000E89
:1003C000416E010E426E51DF8184020E3E6E010EBF
:1003D0003F6E2A0E406E000E416E0ADF020E0B6E5B
:1003E000040E0C6EBA0E0D6E0D2EFED70C2EFCD721
:0A03F0000B2EFAD70000CDD7FFD77F
:020000040030CA
:0E000000000C1F1EFF8381FF0FC00FE00F409A
:00000001FF
