:02000000BB291A
:10000800FF00030E8301BF000A08BE008A017008C2
:10001800A0000408A10009212008F000210884009C
:0E0028003E088A003F0E8300FF0E7F0E090087
:0C003600000000000000000000000800B6
:10004200243083120313FC00B530FD00FD0B27287A
:0A005200FC0B272800000000080046
:0E005C00533083120313FD00FD0B3228080001
:10006A00831203131A08F100981C3D281812181657
:06007A007108F00008000F
:0E0080000030831203138C1A0130F0000800C8
:10008E008316031398184D280000472883124C0836
:04009E0099000800BD
:1000A20083120313C51B5728861158288615451B32
:1000B2005C2806115D280615C51A6128861062287B
:1000C2008614451A66280610672806142A186B2813
:1000D20086166C28861206161B200612C51973286E
:1000E200861174288615451978280611792806156F
:1000F200C5187D2886107E28861445188228061089
:10010200832806142A188728861688288612061637
:100112001B2006122A1C8F28212090282E2008003E
:10012200831203132A104408C50051202A14080020
:0E013200831203132C088A002B088200080099
:1001400083120313CA01CB0148080319DF284808AA
:10015000FF3A0319AC28C80340207008003A031D79
:10016000B228AC2835207008C9004A084607840028
:1001700070088000CA0A4B08470784000008490637
:10018000031DC428CB0ACC28CB01470884000008F3
:100190004906031DCC28CB0A4B08470784000008FA
:1001A000003A031DDE284B084A02F000F101031C4F
:1001B000F1037008460784008001E228A42846085D
:0601C0008400800108002C
:1001C60083120313C801460884000008C7004708C5
:1001D600003A0319F8284708CC004720C80A4808FF
:0C01E600460784000008C700EA28080053
:1001F200831603139816903083129800831687177C
:10020200071383128C1E08291A08F000022908001D
:10021200831203138C1E19298C122E30C6007830DB
:10022200C7000130C800A0202230C600E3201929EF
:020232000800C2
:100234002C29803083120313C0003F29C030C00032
:100244003F299430C0003F29D430C0003F2980307A
:10025400C0003F29831203134008013A03191B29E4
:100264004008023A031920294008033A03192329B4
:100274004008043A0319262929294103F0004008BB
:10028400F0077008C0007008C50051202A10C3018F
:100294004308420784000008031958294308420709
:1002A40084000008C4009120C30A4A292A140800C3
:1002B40099208A110A128000840AAB0A0319AC0A35
:0802C400F003031D5A29080094
:1002CC008316031306128612061086100611861169
:1002DC008312061286128611061186100610212032
:1002EC00212021208614061406161B20061221201C
:1002FC0006161B200612212006161B200612212092
:10030C00061006161B200612212006161B200612AC
:10031C008610861506161B2006122120861106143F
:10032C0006161B200612061006161B20061221208C
:10033C0006161B200612061406161B200612212078
:10034C00061006161B2006128615061586140614B2
:0C035C0006161B20061221202A1408009F
:0E0368008B01831603138C160B178B170800DE
:10037600703083120313A2006930A3006330A40017
:100386003130A5003630A6006630A7007830A800C8
:10039600A901043083160317880089018312871385
:1003A60088138316031305158601831286018316A7
:1003B6008117FF30950066210130C50051200E30AF
:1003C600C50051204130FC00EE30FD00FD0BE9294F
:1003D600FC0BE9290000AD01B42181309900181504
:1003E600F9200330FB008A30FC005530FD00FD0B80
:1003F600FA29FC0BFA29FB0BFA290000000002304F
:10040600C0000130C1002E30C2001A210330FB00AB
:100416008A30FC005530FD00FD0B0F2AFC0B0F2A1D
:0C042600FB0B0F2A00000000022A182A1D
:04400E00F22F000786
:00000001FF
