:101D16001AEC0FF0B886B06ACF0EAF6EAC8413DD46
:101D2600020E0B6E040E0C6EBA0E0D6E0D2EFED745
:101D36000C2EFCD70B2EFAD700000F0EC112070E81
:101D4600B4129280516A94909494816A936A8290B4
:101D56008294736B706B7F6B78DF010EE56F1DEC01
:101D660009F00C0EE56F1DEC09F080A002D0F3DE41
:081D760001D012DEFAD7FFD7FD
:101E340010EE29F0270E006E010E016EA70EF66E4D
:101E44001D0EF76E000EF86ED2EC0BF010EE80F063
:101E5400110E006E010E016E010EF66E1E0EF76E6F
:0A1E6400000EF86ED2EC0BF0120035
:101D7E00090229000101008032090400000203005B
:101D8E000000092101010001222100070581034005
:091D9E00000107050103400001EA
:091DA70052554E204D4F444500F9
:0D1DB00050524F4752414D204D4F444500C9
:101DBD0050524F4752414D4D494E472E2E2E2E2EED
:011DCD000015
:101DCE000600FF0901A10119012940150026FF0097
:101DDE0075089540810219012940750895409102B8
:011DEE00C034
:101DEF00120100020000000834120100010001027C
:021DFF000001E1
:101E0100434F4E4E454354454420544F2050432E9A
:011E110000D0
:101E120010035600540020004C0061006200730061
:0E1E22000E0356005400200050004C004300F8
:041E3000040309049A
:101e6e00000170d101ef7efe0101018301ef82fec0
:101e7e0001010193010101c301ef96fe01010283ed
:101e8e000001738101ef9efe000173910101029327
:021e9e00120030
:020000040030CA
:0E000000210C391EFF8081FF0FC00FE00F4062
:00000001FF