:02000000872A4D
:10000800FF00030E8301D5000A08D6008A01700894
:10001800A0008C1E47281A08B800D40A5408013AD0
:10002800031D1C280608B7003708E60001224728E8
:100038005408023A031D26284408B7004408E6007D
:10004800012247285408033A031D30284508B70001
:100058004508E600012247285408043A031D3728BA
:100068003808860047285408053A031D3E283808F2
:10007800D20047285408063A031D46283808D300FA
:10008800D401472847282008F00056088A00550E52
:080098008300FF0E7F0E09003A
:0A00A000000000000000000008004E
:1000AA00423083120313FD00FD0B5928000008009B
:1000BA001D3083120313FC009130FD00FD0B6328F1
:0600CA00FC0B6328080096
:1000D00083120313E51B6E2888116F288815651B92
:1000E0007328081174280815E51A782888107928CB
:1000F0008814651A7D2808107E280814461882285E
:10010000881683288812081650200812E5198A28B4
:1001100088118B28881565198F28081190280815D3
:10012000E5189428881095288814651899280810CF
:100130009A28081446189E2888169F2888120816A0
:1001400050200812461CA6285D20A728552008002C
:1001500083120313F801F9011030FC00710DF80D42
:10016000F90D7408F8027508031C750FF9020318DD
:10017000C0287408F80775080318750FF9070310ED
:0A018000F00DF10DFC0BAE28080095
:10018A008312031346106008E5006820461408002D
:0E019A00831203133A088A0039088200080015
:0E01A8001D3083120313FD00FD0BD828080044
:1001B60083120313E301053063020318E928630879
:1001C6006207840020308000E30ADE2863086207A5
:1001D60084008001E30363086207E4000A30F40048
:1001E600F5016008F0006108F100A8207808F00029
:1001F6007908F1003030F007640884007008800048
:100206000A30F400F5016008F0006108F100A8204A
:100216007008E0007108E10000307106031D152921
:1002260000307006031D18291A29E303EE2808007A
:10023600FF3083120313C700FF30C800FF30C90028
:10024600FF30C3309F05C0309F0083169F1783126F
:040256001F14080069
:10025A003F29803083120313D7005229C030D700B8
:10026A0052299430D7005229D430D70052298030ED
:10027A00D7005229831203135708013A03192E296A
:10028A005708023A031933295708033A031936293A
:10029A005708043A031939293C295803F00057082A
:1002AA00F0077008D7007008E50068204610DA01E8
:1002BA005A0859078400000803196B295A08590774
:1002CA0084000008E000C520DA0A5D294614080007
:1002DA0083120313DC01DD015708DE005808DF0032
:1002EA0080305806F00080307002031D7E290030ED
:1002FA00570203188C290130DC000030DD00570852
:10030A00003CDE005808031C013EDF01DF025E08E4
:10031A00E0005F08E1005908E200DB200630DA005D
:10032A000030DB005B08003C031D9D295A08003C95
:10033A000318B8295A085907F20001305A02F00086
:10034A000030031C013E5B02F1007008590784006B
:10035A000008F00072088400700880000130DA0298
:10036A00031CDB03972959088400203080005C08AD
:10037A005D040319D629DA01DB015A0859078400FA
:10038A000008203A031DCD29DA0A0319DB0AC2291B
:10039A000130DA02031CDB035A08590784002D30A6
:0403AA0080000800C7
:1003AE00831203135708930083161418E0290000D4
:0A03BE00DB2983121308F000080089
:1003C800831603138712871107168312940140308E
:0A03D80083169400831294160800A7
:1003E200831603139816903083129800831687178A
:1003F200071383128C1E002A1A08F000FA2908003B
:10040200831603139818072A0000012A831266082C
:040412009900080045
:100416008316031308128812081088100811881111
:1004260083120812881288110811881008105D209E
:100436005D205D20881408140816502008125D20DF
:100446000816502008125D200816502008125D205C
:1004560008100816502008125D20081650200812B1
:10046600881088150816502008125D208811081477
:1004760008165020081208100816502008125D2091
:1004860008165020081208140816502008125D207D
:100496000810081650200812881508158814081424
:0C04A6000816502008125D2046140800C3
:1004B200C330831203139F05C0309F005708F0001A
:1004C200F00D7010F00D701070089F0483169F17C6
:1004D20083121F14D4209F149F1C712A00006D2ABE
:1004E2001F101E08F100F00183161E08F0040030F0
:0404F200F104080009
:1004F600CD208A110A128000840AB90A0319BA0AA1
:08050600F003031D7B2A08002D
:10050E00443083120313A1004130A2004330A300F4
:10051E002030A4005630A5006130A6006C30A70034
:10052E007530A8006530A9003A30AA00AB01413001
:10053E00AC004430AD004330AE002030AF0056303A
:10054E00B0006130B1006C30B2007530B300653070
:10055E00B4003A30B500B6019701FF308316031789
:10056E0088008901831287138813831603130514D9
:10057E00051688010F3086008510831285148B179F
:10058E000B1783168C16673099001815F12103305E
:10059E00FB000830FC007730FD00FD0BD42AFC0B6D
:1005AE00D42AFB0BD42A0B220130E50068200C3034
:1005BE00E50068200130D7000130D8002C30D9007A
:1005CE002D210230D7000130D8002130D9002D2145
:1005DE003430FC00F130FD00FD0BF32AFC0BF32A46
:1005EE00000000001B213430FC00F130FD00FD0B3B
:1005FE00FE2AFC0BFE2A00000000E4210330FB0063
:10060E000830FC007730FD00FD0B0B2BFC0B0B2B89
:10061E00FB0B0B2BD401D201D301051E582BD70196
:10062E00592270088312C4007108C50085100F305E
:10063E005305F0007008C3003030F0047008C3009A
:10064E007008D700D7215208C3005208D700D7210F
:10065E0085144408D7004508D8003B30D9006D21D9
:10066E000130D7000B30D8003B30D9002D21520875
:10067E00D7005308D8004A30D9006D210230D70078
:10068E000B30D8004A30D9002D210330FB00083042
:10069E00FC007730FD00FD0B522BFC0B522BFB0B9D
:0606AE00522B142B592B06
:04400E00F22F000786
:00000001FF
