:04000000E8EF02F033
:1000080000C016F001C015F001DA16C000F015C0E6
:0400180001F01100E2
:0C001C00000000000000000000001200C6
:10002800240E0C6EB50E0D6E0D2EFED70C2EFCD7C1
:06003800000000001200B0
:0A003E00530E0D6E0D2EFED71200BA
:10004800086A096A100E0C6E013408360936045025
:10005800085E0550D8A0053C095ED8B007D004500A
:1000680008260550D8B0053C0926D8900036013638
:060078000C2EEAD7120075
:10007E00000162BF02D0819601D0818662BD02D09E
:10008E00819401D0818462BB02D0819201D08182A1
:10009E0062B902D0819001D0818047B002D0818AAE
:1000AE0001D0819A8188B3DF819862B702D08196A0
:1000BE0001D0818662B502D0819401D0818462B371
:1000CE0002D0819201D0818262B102D0819001D0A2
:1000DE00818047B002D0818A01D0819A818897DFD2
:0E00EE00819847A002D099DF01D0A2DF120056
:1000FC005F6A050E5F5C0AE25F505D24E16E000EE4
:10010C005E20E26E200EE66E5F2AF3D75F505D2410
:10011C00E16E000E5E20E26EE66A5F065F505D24C3
:10012C000001606F000E5E20616F0A0E046E000EFF
:10013C00056E5BC000F05CC001F080DF08C000F011
:10014C0009C001F0300E002660C0E1FF61C0E2FF83
:10015C0000C0E6FF0A0E046E000E056E5BC000F0D8
:10016C005CC001F06BDF00C05BF001C05CF0000E06
:10017C00011802E1000E001801E102D05F06CED793
:02018C0012005F
:0E018E00ACB202D00000FCD75BC0ADFF120087
:0C019C0047905BC062F06DDF47801200EE
:1001A8000B6A0A6A096A00500402F4CF09F0F3CF17
:1001B80008F001500502F4CF0BF0F3CF0AF000501D
:1001C8000502F3500926F4500A22E86A0B2201506E
:1001D8000402F3500926F4500A22E86A0B2208C0E8
:1001E80000F009C001F00AC002F00BC003F01200D1
:1001F80005C206F200C200F001C201F00A0E046E48
:10020800000E056ECDDF00C002F201C003F212003D
:100218000E0E5B6EB8DF070E0C6E7D0E0D6E0D2E8A
:10022800FED70C2EFCD70E0E5B6EADDF070E0C6EE4
:100238007D0E0D6E0D2EFED70C2EFCD70E0E5B6EAE
:04024800A2DF12001F
:10024C00AECF01F0ABA202D0AB98AB8801C000F0EE
:02025C0012008E
:10025E00576A586A51C059F052C05AF0800E52185F
:10026E00006E800E005C02E1000E515C0BE2010E8E
:10027E00576E000E586E51500008596E52C05AF00B
:10028E00000E5A5659C05BF05AC05CF053C05DF078
:10029E0054C05EF02CDF060E556E000E566E000E2C
:1002AE00006E5650005C02E15550000819E25550A0
:1002BE005324E16E56505420E26E010E555C006ED2
:1002CE00000E5658016E00505324E96E0150542012
:1002DE00EA6EEECFE6FF010E555E000E565ADFD7E0
:1002EE0053C0E1FF54C0E2FF200EE66E5750581087
:1002FE001AE0556A566A55505324E96E56505420EA
:10030E00EA6EEE50200A03E1554A562AF4D7010E42
:10031E00555E000E565A55505324E16E56505420D9
:08032E00E26E2D0EE66E1200D6
:10033600040E016E06C200F0015004E00036009083
:10034600FF0FFBD700C048F000C05BF01DDF070EB3
:100356000C6E7D0E0D6E0D2EFED70C2EFCD702C236
:1003660048F002C25BF010DF070E0C6E7D0E0D6EBC
:100376000D2EFED70C2EFCD703C248F003C25BF04D
:0403860003DF12007F
:10038A000FD0800E516E19D0C00E516E16D0940E39
:10039A00516E13D0D40E516E10D0800E516E0DD006
:1003AA005150010AEEE05150020AEEE05150030AA0
:1003BA00EEE05150040AEEE0F0D75204006E5150BC
:1003CA00002600C051F000C062F054DE4790556A22
:1003DA0055505324E96E000E5420EA6EEE520BE09B
:1003EA0055505324E96E000E5420EA6EEECF5BF0AE
:0A03FA00D0DE552AEDD7478012002F
:100404000900F5CFE6FF0006FBE10106F9E1120061
:100414009EAA1ED019DF00C03AF0392A3950010AC9
:1004240004E10F0E3A140201056F3950020A02E189
:100434003AC000F23950030A02E13AC001F2800ED8
:100444003918006E800E030A005CD8B0396A00D0F7
:02045400120094
:100456008E0E356E010E366E5B0E376E000E386EE2
:100466004C0E436E020E446E000E456E000E466E36
:10047600FF0E3F6EFF0E406E000E416E000E426E86
:10048600FF0E3B6EFF0E3C6E000E3D6E000E3E6E86
:10049600AC8A900EAB6E948E949C9EAA03D0AECF7F
:0604A60000F0FBD712007C
:1004AC0080A044D0B3DEA2DE020E0B6E450E0C6EA5
:1004BC00A90E0D6E0D2EFED70C2EFCD70B2EFAD7D7
:1004CC000000000032DF00C251F001C252F02D0ECC
:1004DC00536E000E546EBDDE010E516E0B0E526E3D
:1004EC002D0E536E000E546E4ADF02C251F003C241
:1004FC0052F0490E536E000E546EABDE020E516E6E
:10050C000B0E526E490E536E000E546E38DF030EF6
:10051C000B6E8A0E0C6E550E0D6E0D2EFED70C2E1C
:0E052C00FCD70B2EFAD700000000BAD7120041
:10053A009398939A93909392939493968198819A8D
:10054A0081968194819281906ADD69DD68DD81827C
:10055A00818081885EDD819862DD81885ADD81989B
:10056A005EDD818856DD81985ADD8190818851DD72
:10057A00819855DD81884DDD8198819281868188B7
:10058A0048DD81984CDD81968180818842DD8198A1
:10059A00819081883EDD819842DD81883ADD8198AB
:1005AA008180818836DD81983ADD8190818831DDCC
:1005BA008198818681848182818081882ADD8198DF
:0605CA002EDD4780120047
:1005D0004DEC03F00F0EC112070EB41292809394EB
:1005E0008184ABDF010E0001626F49DD0E0E626F88
:1005F00046DD010E516E010E526E170E536E000E47
:10060000546EC3DE020E516E010E526E220E536EF8
:10061000000E546EBADE0D0E0B6EAF0E0C6EB60EE3
:100620000D6E0D2EFED70C2EFCD70B2EFAD7000028
:10063000B886020EB06E080EAF6EAC840CDF030EEF
:100640000B6E8A0E0C6E550E0D6E0D2EFED70C2EF7
:10065000FCD70B2EFAD700000000F26AF28C9D8ABC
:10066000F28E030E0B6E8A0E0C6E550E0D6E0D2E55
:10067000FED70C2EFCD70B2EFAD70000000016DF99
:04068000FED7FFD7CB
:10069A0010EE17F0160E006E010E016E840EF66E45
:0E06AA00060EF76E000EF86E02EC02F0120063
:0B0684004144432056616C75653A004C
:0B068F004441432056616C75653A0041
:020000040030CA
:0E000000000C1F1EFF8381FF0FC00FE00F409A
:00000001FF
