:020000005E2977
:10000800FF00030E8301BD000A08BA008A017008C8
:10001800A0008C1ED3281A08A200A70A2708013AB4
:10002800031D1C283408A3003408BF005421D3281A
:100038002708023A031D26283508A3003508BF0003
:100048005421D3282708033A031D30283808A30071
:100058003808BF005421D3282708043A031D3A283A
:100068003908A3003908BF005421D3282708053AC6
:10007800031D44283608A3003608BF005421D3289E
:100088002708063A031D4E283708A3003708BF0083
:100098005421D3282708073A031D58282A08A30003
:1000A8002A08BF005421D3282708083A031D6228CC
:1000B8002B08A3002B08BF005421D3282708093A8E
:1000C800031D6C282808A3002808BF005421D32842
:1000D80027080A3A031D76282908A3002908BF0023
:1000E8005421D32827080B3A031D80282C08A30085
:1000F8002C08BF005421D32827080C3A031D8A284E
:100108002D08A3002D08BF005421D32827080D3A35
:10011800031D94283008A3003008BF005421D328B9
:1001280027080E3A031D9E283108A3003108BF0096
:100138005421D32827080F3A031DA8282E08A30006
:100148002E08BF005421D3282708103A031DB228CF
:100158002F08A3002F08BF005421D3282708113ADD
:10016800031DBC280808A3002308BF005421D32876
:100178002708123A031DC3282208B200D3282708EB
:10018800133A031DCA282208B300D3282708143AB3
:10019800031DD22822088600A701D328D3282008C7
:1001A800F0003A088A003D0E8300FF0E7F0E09001A
:0E01B800831203133C088A003B0882000800F3
:0E01C6001D3083120313FD00FD0BE728080017
:1001D400FF3083120313A400FF30A500FF30A600F4
:1001E400FF30C3309F05C0309F0083169F178312D2
:0401F4001F140800CC
:1001F800C330831203139F05C0309F003E08F000F0
:10020800F00D7010F00D701070089F0483169F1782
:1002180083121F14E3209F149F1C14290000102927
:100228001F101E08F100F00183161E08F0040030AC
:04023800F1040800C5
:10023C00831603138712871107168312940140301B
:0A024C008316940083129416080034
:100256008316031398169030831298008316871717
:10026600071383128C1E3A291A08F0003429080055
:10027600831203133E0893008316141844290000C2
:0A0286003F2983121308F00008005E
:10029000DC208A110A128000840ABB0A0319BC0AF6
:0802A000F003031D48290800CA
:1002A8008316031398185A290000542983123F080B
:0402B80099000800A1
:1002BC00831203139701FF308316031788008901FB
:1002CC00831287138813831603138117FF3095004D
:1002DC002F308500871483128801FF308316880025
:1002EC0083128601831686010711831207158B175B
:1002FC000B1783168C166730990018152B210330B9
:10030C00FB000830FC007730FD00FD0B8B29FC0B4B
:10031C008B29FB0B8B29EA203430FC00F130FD00DB
:10032C00FD0B9629FC0B9629000000001E210330C2
:10033C00FB000830FC007730FD00FD0BA329FC0B03
:10034C00A329FB0BA329A701B201B301871C0C2A1B
:10035C00BE01FC2070088312B4007108B500013096
:10036C00BE00FC2070088312B8007108B90002307E
:10037C00BE00FC2070088312B6007108B700033071
:10038C00BE00FC2070088312AA007108AB00043078
:10039C00BE00FC2070088312A8007108A90005306B
:1003AC00BE00FC2070088312AC007108AD00063052
:1003BC00BE00FC2070088312B0007108B100073039
:1003CC00BE00FC2070088312AE007108AF0007114C
:1003DC000F303305F0007008A1003030F0047008C5
:1003EC00A1007008BE003B213208A1003208BE00FB
:1003FC003B2107150330FB000830FC007730FD0073
:10040C00FD0B062AFC0B062AFB0B062AAC290D2A2F
:04400E00F22F000786
:00000001FF
